:100000000C9404080C943C080C943C080C94FC32AE
:100010000C943C080C943C080C943C080C943C0850
:100020000C943C080C943C080C941D180C94B81CBF
:100030000C941E280C943C080C943C080C943C082E
:100040000C943C080C943C080C943C080C943C0820
:100050000C943C080C94F6180C943C080C943C0846
:100060000C943C080C943C080C943C080C943C0800
:100070000C943C080C943C080C943C080C943C08F0
:100080000C943C080C943C080C943C080C943C08E0
:100090000C943C080C943C080C943C080C943C08D0
:1000A0000C943C080C943C080C943C080501090293
:1000B000A10185020901A1000509190129081500FE
:1000C0002501950875018102050109300931158165
:1000D000257F95027508810609381581257F9501D0
:1000E00075088106050C0A38021581257F95017572
:1000F000088106C0C005010980A101850319012AF4
:10010000B700150126B700950175108100C0050CD8
:100110000901A101850419012AA002150126A002E6
:10012000950175108100C005010906A1018506052C
:100130000719E029E71500250195087501810205D9
:1001400007190029EF1500250195F07501810205B9
:10015000081901290595057501910295017503910D
:1001600001C00660FF0961A1010962150026FF00B8
:100170009520750881020963150026FF00952075FA
:10018000089102C005010906A101050719E029E748
:1001900015002501950875018102950175088101F9
:1001A0000507190029FF150026FF0095067508812F
:1001B000000508190129059505750191029501753C
:1001C000039101C0000000000000000000000000DA
:1001D000000000000000000000000000000000001F
:1001E00000000000000000007E0F00D4FFFFFFC7EA
:1001F0000000007800000000000000002A2B28000A
:1002000000000000000000000000000000000029C5
:10021000000000002C1E3420212224342627252E05
:10022000362D3738271E1F2021222324252633333D
:10023000362E37381F0405060708090A0B0C0D0E69
:100240000F101112131415161718191A1B1C1D2F35
:100250003130232D350405060708090A0B0C0D0E55
:100260000F101112131415161718191A1B1C1D2F15
:100270003130354C00DA0281FFD9F1DB20A4A62E03
:10028000AF00A0C000A1C800AED580A81FD3004019
:100290008D142000643214643214783C1E1E140A3B
:1002A000052D2D2D2D2D002E0053435220002E0004
:1002B0004E554D20002E0043415020002000556E29
:1002C0006465660033003200310030004C59522022
:1002D000002D2D2D2D2D00F8FEFEFFFFFFFFFFFF4F
:1002E000FFFFFFFFFF3F0E0604FEFEFFFFFFFFFFC5
:1002F000FFFEFEFCF8F0C07FFFFFFFFFFFFFFFFFE8
:10030000FFFFFFFFFFF0C08080FFFFFFFFFFFFFF49
:10031000FFFFFFFF7F3F0F00010103030303030300
:1003200003030303030301010001010303030303A8
:1003300003010100000000000000000000000000B8
:100340000080C0C0E0E0E0E0E0E0E0E0E0E0E0E02D
:10035000E0E0C0C08080C0C0E0E0E0E0E0E0E0E0DD
:10036000C0C080000000000000000000000000008D
:10037000000000000000000000000000000000007D
:10038000000000000000000000000000000000006D
:10039000000000000000000000000000000000005D
:1003A000000000000000000000000000000000004D
:1003B000000000000000000000000000000000003D
:1003C000FFFFFFFFFFFFFFFFFFFFFFFFFFFFFFFF3D
:1003D000FF0F03010001FFFFFFFFFFFFFFFFFFFF14
:1003E000FFFFFFFFFEFCF000000000000000000027
:1003F000FEFEFE000000000000FEFEFE000000FE0B
:10040000FEFEFCF8E0C080E0F8FCFEFEFE0000808E
:10041000808080808000000078FCFECECECECEFEB4
:100420007C780000F0F8FC3E1E0E0E1E3EFCF8F03C
:1004300000000000000000000000000000000000BC
:10044000FFFFFFFFFFFFFFFFFFFFFFFFFFFFFFFFBC
:10045000FFF0C0800080FFFFFFFFFFFFFFFFFFFFF7
:10046000FFFFFFFF7F3F0F000000000000000000C3
:100470000F3F3F7C707070707C3F3F0F0000007F2B
:100480007F7F0001070F0F0701007F7F7F000003C0
:10049000030303030301001E3F7F7B7171717B7FA8
:1004A0003F1E00000F1F3F7C787070787C3F1F0F4D
:1004B000000000000000000000000000000000003C
:1004C00000010307070707070707070707070707CD
:1004D00007070303010103030707070707070707C8
:1004E0000303010000000000000000000000000005
:1004F00000000000000000000000000000000000FC
:1005000000000000000000000000000000000000EB
:1005100000000000000000000000000000000000DB
:1005200000000000000000000000000000000000CB
:1005300000000000000000000101010101010101B3
:100540000102020202020202020203030303030386
:100550000303040404040404040505050505060654
:100560000606060707070707080808080909090912
:100570000A0A0A0B0B0B0C0C0C0D0D0D0E0E0E0FB8
:100580000F0F101011111112121313141415151648
:10059000161717181819191A1A1B1B1C1D1D1E1EB9
:1005A0001F2020212222232424252626272829290A
:1005B0002A2B2C2D2D2E2F30313232333435363735
:1005C00038393A3B3C3D3E3F404142434445464733
:1005D00048494A4C4D4E4F50515354555658595A0C
:1005E0005B5D5E5F616264656668696B6C6D6F70B0
:1005F00072737577787A7B7D7E8082838587888A1F
:100600008C8E8F91939596989A9C9EA0A2A3A5A755
:10061000A9ABADAFB1B3B5B7BABCBEC0C2C4C6C951
:10062000CBCDCFD1D4D6D8DBDDDFE2E4E7E9EBEE0A
:10063000F0F3F5F8FAFDFF2223252628292A2C2D90
:100640002F3032333536383A3B3D3E404243454702
:10065000494A4C4E5051535557595A5C5E6062643A
:100660006668696B6D6F71737577797B7D7F818348
:100670008587898A8C8E90929496989A9C9E9FA149
:10068000A3A5A7A8AAACAEAFB1B3B4B6B8B9BBBC6A
:10069000BEBFC1C2C3C5C6C7C9CACBCCCDCED0D1DF
:1006A000D2D2D3D4D5D6D7D7D8D9D9DADADBDBDBD7
:1006B000DCDCDCDCDCDDDDDDDDDCDCDCDCDCDBDB78
:1006C000DBDADAD9D9D8D7D7D6D5D4D3D2D2D1D0CC
:1006D000CECDCCCBCAC9C7C6C5C3C2C1BFBEBCBBC9
:1006E000B9B8B6B4B3B1AFAEACAAA8A7A5A3A19F41
:1006F0009E9C9A98969492908E8C8A898785838105
:100700007F7D7B79777573716F6D6B6968666462E5
:10071000605E5C5A5957555351504E4C4A494745B3
:100720004342403E3D3B3A3836353332302F2D2C54
:100730002A29282625232207087F0807003E5B4F29
:100740005B3E003E6B4F6B3E001C3E7C3E1C001827
:100750003C7E3C18001C577D571C001C5E7F5E1CB5
:100760000000183C180000FFE7C3E7FF0000182452
:10077000180000FFE7DBE7FF0030483A060E0026CE
:100780002979292600407F05050700407F05253F80
:10079000005A3CE73C5A007F3E1C1C0800081C1C09
:1007A0003E7F0014227F2214005F5F005F5F00061F
:1007B000097F017F00006689956A00606060606063
:1007C0000094A2FFA2940008047E04080010207E7A
:1007D00020100008082A1C0800081C2A0808001E0F
:1007E00010101010000C1E0C1E0C0030383E38305B
:1007F00000060E3E0E060000000000000000005F34
:10080000000000000700070000147F147F1400247C
:100810002A7F2A12002313086462003649562050AA
:1008200000000807030000001C22410000004122D4
:100830001C00002A1C7F1C2A0008083E0808000033
:1008400080703000000808080808000000606000A0
:10085000002010080402003E5149453E0000427F3E
:100860004000007249494946002141494D33001872
:1008700014127F10002745454539003C4A4949314B
:1008800000412111090700364949493600464949C6
:10089000291E000000140000000040340000000089
:1008A00008142241001414141414000041221408E6
:1008B000000201590906003E415D594E007C1211AB
:1008C000127C007F49494936003E41414122007F68
:1008D0004141413E007F49494941007F09090901E1
:1008E000003E41415173007F0808087F0000417FAE
:1008F0004100002040413F01007F08142241007F59
:1009000040404040007F021C027F007F0408107FAF
:10091000003E4141413E007F09090906003E415128
:10092000215E007F09192946002649494932000302
:10093000017F0103003F4040403F001F2040201F37
:10094000003F4038403F00631408146300030478FC
:100950000403006159494D4300007F4141410002B9
:100960000408102000004141417F000402010204FC
:10097000004040404040000003070800002054545D
:100980007840007F284444380038444444280038E4
:100990004444287F0038545454180000087E09024B
:1009A0000018A4A49C78007F080404780000447D0B
:1009B0004000002040403D00007F1028440000001F
:1009C000417F4000007C04780478007C08040478AF
:1009D00000384444443800FC182424180018242407
:1009E00018FC007C080404080048545454240004F3
:1009F000043F4424003C4040207C001C2040201C3C
:100A0000003C4030403C004428102844004C90906A
:100A1000907C004464544C440000083641000000BF
:100A200000770000000041360800000201020402C5
:100A3000003C2623263C000000000000004040400F
:100A4000F0F8F8FF38FFF8F83FF8F8FF38FFF8F84B
:100A5000F040404000000000000080C0C0C08000A6
:100A600000C0C08000000080C0C000C0C000008086
:100A7000C0C00000000000C0C0C0C0C000C0C000B6
:100A80000000000000000000000000000000000066
:100A90000000000000000000000000000000000056
:100AA0000000000000000000000000000000000046
:100AB000000000000000C0F0F8FC3E1E060100002F
:100AC000007F4141417F007F4141417F000080C064
:100AD000E07E5B4F5BFEC00000C000DCD7DEDEDEE8
:100AE000D7DC00C000000000000000000000000093
:100AF000000000000000000000000000004949491B
:100B0000FFFFFFFFE0DFBFBF00BFBFDFE0FFFFFF72
:100B1000FF49494900000000001F3F6060E0BF1F1F
:100B2000007F7F071E381E077F7F007F7F0E1F3BE1
:100B3000716000000000007F7F0C0C0C007E7E00C6
:100B40007F7E0303007F7E03037E7E03037F7E00A0
:100B50000F3E703C063C703E0F00327B49493F7EA1
:100B6000007F7E0303001E3F69696F2600000000BE
:100B7000000000000000030F1F3F3C787060000081
:100B8000007F4141417F007F4141417F00307B7FB9
:100B90007830202030787F3B0003000F7F0F0F0F4D
:100BA0007F0F0003000000000000000000000000B4
:100BB0000000000000000000000000000001010132
:100BC000070F0F7F0F7F0F0F7E0F0F7F0F7F0F0F0E
:100BD0000701010100000000000000000000010109
:100BE0000000000000000000000000000000000005
:100BF00000000000000000000000000000000000F5
:100C000000000000000000000000000000000000E4
:100C100000000000000000000000000000000000D4
:100C200000000000000000000000000000000000C4
:100C300000000000000000000000000000000000B4
:100C400000000000000000000000000000000000A4
:100C50000000000000000000000000000000000094
:100C60000000000000000000000000000000000084
:100C70000000000000000000AF00AE29003A003B79
:100C8000003C003D003E003F00000035001E001FFC
:100C900000200021002200230000002B0014001A75
:100CA0000008001500170000001E0039000400169F
:100CB00000070009000A0000001F00E1001D001BE2
:100CC0000006001900050000002000E000E300E23B
:100CD0000001512C000000000021004000410042B2
:100CE000004300440045004C00A8002400250026D5
:100CF0000027002D002E0035002A001C0018000CD3
:100D000000120013002F00300031000B000D000E08
:100D1000000F003300340028004A00110010003694
:100D20000037003800E50000004B002C00E600E42E
:100D300000500051004F0052004E00010001000120
:100D4000000100010001000100000001000100019C
:100D5000000100010001000100000001000100018C
:100D6000000100010001000000010001000100017C
:100D7000000100010001000000010001000100016C
:100D8000000100010001000000010001000100015C
:100D9000000100010000000000010001000100014D
:100DA000000100010001000100010001000100013B
:100DB000000100010001000100010001000100012B
:100DC000000100010001000100010001000100011B
:100DD000000100010001000100010001000100010B
:100DE00000010001000100000001000100010001FC
:100DF00000010001000100010001000100010001EB
:100E000000010001000100010000000100010001DB
:100E100000010001000100010000000100010001CB
:100E200000010001000100000001000100010001BB
:100E300000010001000100000001000100010001AB
:100E4000000100010001000000010001000100019B
:100E5000000100010000000000010001000100018C
:100E6000000100010001000100010001000100017A
:100E7000000100010001000100010001000100016A
:100E8000000100010001000100010001000100015A
:100E9000000100010001000100010001000100014A
:100EA000000100010001000000010001000100013B
:100EB000000100010001000100010001000100012A
:100EC000000100010001000100000001000100011B
:100ED000000100010001000100000001000100010B
:100EE00000010001000100000001000100010001FB
:100EF00000010001000100000001000100010001EB
:100F000000010001000100000001000100010001DA
:100F100000010001000000000001000100010001CB
:100F200000010001000100010001000100010001B9
:100F300000010001000100010001000100010001A9
:100F40000001000100010001000100010001000199
:100F50000001000100010001000100010001000189
:100F6000000100010001000000010001000100017A
:100F7000000100010001000100010009025B000303
:100F80000100A0FA09040000010301010009211178
:100F90000100012240000705810308000109040146
:100FA00000020300000009211101000122220007B4
:100FB0000582032000010705030320000109040244
:100FC00000010300000009211101000122B6000701
:100FD0000584032000011201000200000008654D95
:100FE00041320100010200010C0355004D002D00AB
:100FF0003800300000000C034D00650072006700EF
:10100000650000000403090411241FBECFEFDAE0DD
:10101000DEBFCDBF04B603FE18C08091F1069091EB
:10102000F206A091F306B091F4068730904BA740EA
:10103000B04B59F41092F1061092F2061092F3069A
:101040001092F406E0E0F8E3099511E0A0E0B1E0C9
:10105000E2EDFAE602C005900D92A83DB107D9F77E
:1010600026E0A8EDB1E001C01D92A13FB207E1F773
:101070000E9445280C943E350C9400009091F00697
:10108000899FC0011124811522E0920714F090E09D
:1010900080E080519B4F9093EF048093EE0408957D
:1010A000E8EDF0E080818E7F80831092E200109264
:1010B000DA001092E100A0EEB0E08C9181608C9398
:1010C00080818F77808319BCA7EDB0E08C918E7FF3
:1010D0008C9380818F7E80831092BD04089520912F
:1010E000E4003091E50095E6A9012091EC00822F03
:1010F000817020FF06C08091E80080FF06C080E07C
:1011000008952091E80022FD1AC08091E30488230D
:1011100089F0853089F08091EB0085FD0FC020912A
:10112000E4003091E50042175307F9F29150E1F6DF
:1011300084E0089582E0089583E0089581E00895B1
:10114000EF92FF920F931F93CF937C018B010E942C
:101150006F08C82F811117C08091E80085FD0BC072
:101160008091E8008E778093E8000E946F088823C2
:1011700099F3C82F08C0F70181917F018093F10096
:101180000150110949F78C2FCF911F910F91FF90BA
:10119000EF9008958091E50487FF13C08091E800E7
:1011A00082FF06C08091E8008B778093E80004C03E
:1011B0008091E3048111F2CF08958091E3048823A4
:1011C000D9F38091E80080FFF8CF8091E8008E7716
:1011D000ECCF982F9093E900242F762F50E08917B9
:1011E00031F07091EC002091ED005091F00021FD64
:1011F00007C09F5F973071F78093E90081E0089501
:101200003091EB003E7F3093EB003091ED003D7F5D
:101210003093ED003091EB0031603093EB00709330
:10122000EC002093ED005093F0002091EE0027FD9C
:10123000E0CF80E00895CF92DF92EF92FF920F937C
:101240001F93CF93DF93C8EDD0E088818F7E888392
:10125000E7EDF0E080818160808384E082BF81E0FF
:101260008093BD0488818E7F888302EE10E0F801B0
:1012700010821092DA0081EEC82ED12CF601108275
:1012800088818F77888388818068888388818F7D33
:10129000888319BC1092E3041092E4041092E204D3
:1012A0001092E10490EEE92EF12CF70180818B7F02
:1012B000808388818160888342E060E080E00E94D2
:1012C000E908F60180818E7F8083F801808181604A
:1012D0008083808188608083F70180818E7F808316
:1012E000888180618883DF91CF911F910F91FF905A
:1012F000EF90DF90CF900895FC018091EB049091E6
:10130000EC0486179707A0F06115710529F49091F8
:10131000E8009E779093E80090E06115710551F424
:10132000911108C08091E80082FF34C080E00895E8
:10133000BC01F2CF8091E3048823C1F18530C1F173
:101340008091E80083FD30C08091E80082FDEACF03
:101350008091E80080FFE1CF8091F3002091F200BE
:10136000382F6115710519F02830310558F091E0DA
:101370002830310509F090E02091E8002E77209385
:10138000E800CBCF81918093F100615071092F5F0C
:101390003F4FE7CF8091E304882341F0853041F04F
:1013A0008091E80083FFBECF81E0089582E0089538
:1013B00083E0089508958091C0040895CF92DF924C
:1013C000EF92FF922FB7F894C090B404D090B50478
:1013D000E090B604F090B7042FBFA7019601261B3A
:1013E000370B480B590BCA01B901FF90EF90DF9002
:1013F000CF9008952FB7F8946091B4047091B5041C
:101400008091B6049091B7042FBF089520915401A4
:101410002223C9F02091B80427FF15C0E62FE695D6
:10142000E695E695EE31D8F4E80FF92FF11D6770D7
:1014300021E030E001C0220F6A95EAF72095828111
:10144000282322830895FC01329608962191621385
:1014500003C0DF0111971C92E817F907B9F7089547
:101460002091B1043091B2042817390771F090939C
:10147000B2048093B104E091AF04F091B0043097CE
:1014800021F00084F185E02D099408952091AD04A8
:101490003091AE042817390771F09093AE04809311
:1014A000AD04E091AF04F091B004309721F00680D4
:1014B000F781E02D09940895CF93DF932091EE04F6
:1014C0003091EF04205F3440A901460F571F41308F
:1014D000524020F060E072E0621B730B4091A50463
:1014E0005091A604FC01C901620F731FC1E0D0E056
:1014F0008617970738F05093A6044093A504DF9110
:10150000CF9108952491DC01A051BB4F3C9132173B
:1015100081F02C939C01A5E036952795AA95E1F7DB
:10152000DE0102C0AA0FBB1F2A95E2F79D014A2BDC
:10153000532B01963196DCCFFC01680F791F8FEF9A
:1015400091E32191822728E030E087FF09C0880FCE
:10155000892721503109C9F7E617F70791F7089550
:10156000880FF7CFFA01811101C0FB01099408959A
:10157000EAE6F3E01182828184608283089580919B
:101580009A04982F9E7F61F48170826080939A0400
:1015900080919D04893718F088E780939D04089511
:1015A0008A32B0F381708862F1CFAF92BF92DF923E
:1015B000EF92FF920F931F93CF93DF93082F162F75
:1015C000E901E42FF0E0E95CFA4F611110C0E49109
:1015D0005E2F4E2F4983E8835A83DF91CF911F916D
:1015E0000F91FF90EF90DF90BF90AF900895E62E9F
:1015F000F12C4491D42EE42FF0E026E0829FC0012C
:1016000011242FEF30E0B9010E941834802F90E0B0
:10161000880F991F55E5569FD001579FB00D112493
:101620008A1B9B0B982F990F890F5901AE18BF0881
:10163000AE9ED001AF9EB00DBE9EB00D11245B2FAB
:10164000189F80011124012F11275901A01AB10AF6
:10165000AE9E8001AF9E100DBE9E100D112459014B
:10166000A81AB108AE9CC001AF9C900DBE9C900D15
:101670001124892F9927281B390B2E9FC0012F9FDA
:10168000900D3E9F900D1124E92F62307105A1F05D
:1016900050F46115710509F49DCF6130710581F039
:1016A000EB2F512F97CF6430710569F080F06630D1
:1016B000710509F48FCFF4CFE42F4B2F592F8ACF28
:1016C000E42F412F87CFEB2F542F492F83CF4B2F60
:1016D0005D2DE12F7FCF40916003803F59F48091D1
:1016E000610387FF0DC01092610341110BC010927E
:1016F000580308C0813F81F48091610318169CF360
:10170000442381F08091620390916303892B09F057
:101710005AC0109257030895823F49F447FFF0CF13
:1017200010926003809161038111ECCFE0CF833F81
:1017300019F41416ACF3E4CF90916203893F29F4B5
:101740001916F4F610926203DBCF8A3F19F497FF63
:10175000D7CFF8CF909163038B3F29F497FFD0CF79
:1017600010926303CDCF8C3F19F41916CCF3C8CF78
:101770009CE0980F953090F4845F990B21E030E065
:10178000B90102C0660F771F8A95E2F7CB018095F9
:1017900090915F03892380935F03B2CF8D3F31F433
:1017A000809159038E7F80935903AACF8E3F21F4F5
:1017B000809159038D7FF7CF8F3F09F0A1CF8091A2
:1017C00059038B7FF0CF08958091590380FD16C097
:1017D00081FD16C082FD16C0809157038823A1F0B9
:1017E000883280F428E0829FC001112468E270E012
:1017F0000E944634862F672B39F0089582E00895C1
:1018000084E0089588E0089581E008958091590367
:1018100080FD14C081FD14C082FD16C08091580364
:10182000882381F08E3180F420E5829FC00111244D
:101830006EE170E00E944634862F089584E1089599
:1018400088E2089588E0089580E50895803F31F4A6
:101850000E94060C8195809361030895813F19F4DD
:101860000E94060CF8CF823F31F40E94060C81954D
:10187000809360030895833F19F40E94060CF8CF0B
:10188000893F29F40E94E40B8093620308958A3F04
:1018900021F40E94E40B8195F7CF8B3F31F40E9435
:1018A000E40B81958093630308958C3F19F40E94A3
:1018B000E40BF8CF9CE0980F953070F4845F990B9F
:1018C00021E030E001C0220F8A95EAF780915F03A2
:1018D000822B80935F0308958D3F31F480915903EB
:1018E00081608093590308958E3F21F480915903BC
:1018F0008260F7CF8F3FB9F7809159038460F1CFB1
:1019000080E0089578940895F894E82FE295EF70B8
:10191000F0E031A1282F2F7081E090E001C0880F06
:101920002A95EAF7982F9095932391A392A1892B5A
:1019300082A30C94820C9091B80492FF06C0282FC9
:1019400028712830F9F4877F846093FF06C0282F20
:1019500028712831F1F4877E84612091B90420FF39
:1019600006C0382F38713830D9F4877F816021FF65
:1019700006C0282F28712831D1F4877E816194FD1B
:10198000877E0895282F24712430F9F68B7F886094
:10199000DCCF282F2471243101F78B7E8861DDCFC5
:1019A000382F3171313019F78E7F8860E0CF282FC2
:1019B0002171213121F78E7E8861E1CFCF93DF93B2
:1019C000EC0182389105A9F1D8F58133910509F42C
:1019D00096C048F58932910509F48AC08A9709F4BE
:1019E00095C0C11521E5D20708F0BCC0C11530E58E
:1019F000D30708F014C1C83ED10508F09CC0C03E12
:101A0000D10560F5C83AD10508F087C0C53AD105BF
:101A100008F0FDC0C130D10509F12097F9F0C430BC
:101A2000D105E0F440C08533910509F45AC0C99747
:101A3000C1F68091B804837089F0C0EED0E00EC08A
:101A4000833E910599F170F4803E910501F1823E4B
:101A5000910539F68091B80482FD21C0CE01DF9155
:101A6000CF910895863E910561F1873E910571F110
:101A7000843E910509F0B5CF8091B90481FFEECF86
:101A80008091B804C7EED0E084FD0DC0E7CF80910F
:101A9000B80480FD12C19091B90490FFDFCFC3EE6E
:101AA000D0E084FFDBCFD0E0C0E0D8CF8091B80495
:101AB00082FD06C19091B90490FDBFCF84FFCECFC7
:101AC000F2CF8091B80483FDDDCFC8CF8091B804F8
:101AD00083FDF9C09091B90491FFF0CFC4EED0E03E
:101AE000BDCF8091B80485FFB9CFC9E2D0E0B6CFB1
:101AF0008091B80485FFB2CFC5E3D0E0AFCF80912D
:101B0000B80486FFABCFCAE2D0E0A8CF8091B8047A
:101B100086FFA4CFC1E3D0E0A1CFCF3BD10518F61B
:101B2000C85AD0E0CC0FDD1FC25ADE4F0990D881D1
:101B3000C02DD46493CFC11540E2D40758F4C11529
:101B400081E0D80708F08ACFC03FD10508F4ABCFB9
:101B5000D06584CFC11590E4D90708F4A4CFDF7015
:101B6000D06A7CCFC11525E5D20700F5C11534E553
:101B7000D30708F08AC0C11543E5D40708F071C047
:101B8000C11582E5D80708F467C0CE018370992794
:101B900021E030E002C0220F331F8A95E2F7C6959C
:101BA000C69580E2C89FE001112452C0C11599E595
:101BB000D907A8F4C11528E5D20708F06BC0C115F4
:101BC00036E5D30708F06FCF8C2F0E949B0CC82FEF
:101BD000D0E0DC2FCC27CC27DF71D0623FCFC115FE
:101BE0004AE5D40708F45BC0CE01905681159042B7
:101BF00008F059CF8D2F8F710E949B0C90E0982F89
:101C0000882788279F719C012C2BE901E6CFC55AB4
:101C1000D0E0C55ADE4FC881D0E0D0641FCFCE01DE
:101C2000E4E096958795EA95E1F783702C2F269549
:101C30002695237040E2249F90011124382B8C2F8D
:101C40008370C1E0D0E002C0CC0FDD1F8A95E2F7BF
:101C5000C22BD32BDC6802CFDC2FCC27C16FD06A1C
:101C6000FDCECE018370992721E030E002C0220F23
:101C7000331F8A95E2F7C695C69590E2C99FE001A9
:101C80001124C22BD32BDA68E9CEDC2FCC27C46F0A
:101C9000D06AE4CEDC2FCC27C06FD06ADFCE8C2F89
:101CA0008F700E949B0C34E0D695C7953A95E1F76A
:101CB000CF709C2FEC01D069D1CEC9E3D0E0CECE5D
:101CC000C2EED0E0CBCEC6EED0E0C8CE0C94FA097E
:101CD0008091AE0281111092AE0208959091B904E4
:101CE00092FD05C09091AE0298138093AE020895C4
:101CF00080959091BE0498239093BE04089580919E
:101D0000550290912402981301C008958F5F877047
:101D1000FACF990F990F990F890F982F9770869581
:101D20008695869523E0829FF0011124E650FE4FB0
:101D300050E040E080E0219130E0092E02C036956D
:101D400027950A94E2F721703327042E01C0220F51
:101D50000A94EAF7822B4F5F5F4F4330510559F7E2
:101D60000895990F990F990F890F982F977041E057
:101D700001C0440F9A95EAF786958695869593E07B
:101D8000899FF0011124E650FE4F30E020E070E022
:101D90005191DF011197CB01022E02C096958795D4
:101DA0000A94E2F7817081958527842385278C9397
:101DB0002F5F3F4F2330310559F70895982F9295A3
:101DC0009F7011F0892F94E0282F2695269511F009
:101DD0009E5F822F869509F09F5F892F0895CF928D
:101DE000DF92EF92FF920F931F93CF93DF936C01DB
:101DF0007B0164E670E088E70E945331EC0197FDB7
:101E000012C010E000E0F601E00FF11F849164E6DB
:101E100070E00E94CD31EC01892B29F40F5F1F4F38
:101E20000E151F0581F70E945032CE01DF91CF9130
:101E30001F910F91FF90EF90DF90CF9008958091C8
:101E4000AB049091AC04911103C091E089270895EF
:101E5000882369F062E070E089E79CE00E94EF0E61
:101E6000892B19F08091AB0408951092AB048091F6
:101E7000AB04EBCFCF93C091AB048091AC0488232B
:101E8000D1F00E94FA09605A75418F4F9F4F6093BD
:101E9000A7047093A8048093A9049093AA04C11185
:101EA00008C062E070E087E79CE00E94EF0E892B9B
:101EB00029F0C091AB048C2FCF91089581E08093DD
:101EC000AB04F7CF8093BA047093BC046093BB0457
:101ED0008091E3048430F9F48093E9008FEF9091CE
:101EE000E800815095FD06C095ED9A95F1F7000048
:101EF0008111F5CF8091E80085FF0DC050E040E0F2
:101F000063E070E08AEB94E00E94A0088091E80012
:101F10008E778093E8000895BC0184E00C94620FF2
:101F2000BC0183E00C94620F9C0184E08093E90083
:101F30009FEF8091E800915085FD06C085ED8A9560
:101F4000F1F700009111F5CF8091E80085FF0CC0FA
:101F500050E040E066E070E0C9010E94A008809176
:101F6000E8008E778093E8000895CF93DF93EC012B
:101F7000809154018823B1F18091B80487FF32C069
:101F800060E284E08093E9008FEF9091E800815057
:101F900095FD06C095ED9A95F1F700008111F5CFFA
:101FA0008091E80085FF1BC08091540170E050E0F3
:101FB00040E0811104C050E040E068E070E0CE01F4
:101FC0000E94A0088091E8008E778093E80080E26C
:101FD000FE01A1ECB4E001900D928A95E1F7DF914A
:101FE000CF91089568E081E0CDCF81E08093E0005B
:101FF00080E28093D8001092C9008FE19EE401979F
:10200000F1F700C0000087E090EBDC018093F1065F
:102010009093F206A093F306B093F40688E19CE057
:102020000FB6F894A895809360000FBE909360005F
:10203000FFCF6091500180919A0480FF20C0809171
:102040004F0143E0849FC001112483599C4F539A50
:102050002BB1277F3BB138605FB7F894FC01649FD8
:10206000E00DF11D1124BF0168177907D1F45FBF9E
:102070008FE594E00197F1F700C00000089580918A
:1020800051019091520123E0829FF0011124E35904
:10209000FC4F8917A0F61182108212828F5F33964F
:1020A000F8CFFC014191CF01E8E03BB9000000C04E
:1020B00047FF2BB9440F000000C000C000C02BB97F
:1020C00000C0EA9591F7D0CF8F929F92AF92BF92C6
:1020D000CF92DF92EF92FF920F931F93CF93DF93F4
:1020E000EC018A81BB24BA9480FD02C0BB24B39466
:1020F000A09053018C81811109C081E0B81228C0E1
:102100008FEF8A0D8093990481E08C83F12CE12C70
:1021100044E6842EEA14F8F00E9419108091990484
:1021200091E0B91262C081115BC08091530181506E
:10213000809399041C82DF91CF911F910F91FF90A2
:10214000EF90DF90CF90BF90AF909F908F900895C9
:1021500010929904D9CF009151010E0D1F2D111D20
:10216000C801880F991F080F191F03591C4FF80148
:1021700011821082128234E0C32ED12C912C8091D6
:102180009904890D853644F1682D0E943834892FD1
:10219000082E000C990B8E159F05A9F480919D04C3
:1021A0008C9DA0018D9D500D1124559547955595F9
:1021B0004795493708F048E7980160919C04809161
:1021C0009B040E94D50A9B0CF1E0CF1AD108B9F606
:1021D0008FEFE81AF80A9ECF87FFDACF8A0DD8CFA3
:1021E000815080939904BC82A6CF90E001966091C3
:1021F000530170E00E944634809399048C839BCFF6
:10220000EF92FF921F93CF93DF93EC0110E0EE2447
:10221000EA94F12C60915301161770F00E94191086
:102220009A818C8190FF2AC08F5F8C83DF91CF9140
:102230001F91FF90EF90089520915101422F410F7F
:102240005527551FCA019A01220F331F280F391F26
:1022500023593C4F40919D04493708F048E770E00E
:10226000C7010E944634962F8C8160919C04199F6F
:10227000800D11240E94D50A1F5FCCCF8150D5CF8D
:1022800090919A0490FF14C09091510120915201B5
:1022900033E0939FF0011124E359FC4F921710F0A3
:1022A0000C9419108183608342839F5F3396F6CF2D
:1022B0000895CF93DF9300D00F92CDB7DEB7909102
:1022C0009A0490FF0DC0493708F048E79E012F5F40
:1022D0003F4F0E94D50A4B8169818A810E9440113B
:1022E0000F900F900F90DF91CF910895CF93DF93D0
:1022F000EC01EAE9F4E0438162818C810E9459118A
:102300008C818F5F8C83DF91CF910895CF93DF9382
:10231000EC01EC81F0E0E95CF94F4491EAE9F4E08A
:10232000628181810E9459118C818F5F8C83DF9142
:10233000CF910895EAE9F4E080818E7F80830E9446
:10234000B80AEAE6F3E08281816082832FEF80E7BA
:1023500092E0215080409040E1F700C000000C94D2
:1023600019109F92AF92BF92CF92DF92EF92FF929D
:102370000F931F93CF93DF937C015B016A018091E0
:10238000B70201E010E08A3010F40AE010E0C1E08A
:10239000D0E0F894B501C701F6010995982E0E9486
:1023A000820C911004C021960C171D076CF4892D26
:1023B000DF91CF911F910F91FF90EF90DF90CF9021
:1023C000BF90AF909F900895CC9F9001CD9F300D0E
:1023D000300D112490E080E045E34A95F1F70000CC
:1023E000019682179307C1F7D4CF809182028111A1
:1023F00018C088EC9091E30097FD10C0EFE3FCE972
:102400003197F1F700C000008150A1F782E080937E
:1024100082020E9450081092E30403C081E080937E
:10242000820281E090918202913011F080E0089563
:1024300008950E94F511882351F0E091AF04F091C6
:10244000B004309721F00190F081E02D099480E0F4
:1024500008950F931F930E94F511882321F01F9177
:102460000F910C94FA090E94FA090091B802109198
:10247000B9022091BA023091BB02600F711F821F16
:10248000931F1F910F910895CF93DF93C7E2D3E07D
:1024900060E0CE010E940A352196C11584E0D8077C
:1024A000B9F7DF91CF9108956F927F928F929F92AB
:1024B000AF92BF92CF92DF92EF92FF920F931F9352
:1024C000CF93DF938BE7C82E8CE0D82E07EF10E078
:1024D000E801C05CD10936011CC0F50185909490DB
:1024E000692DC7010E940A35682DC70101960E9417
:1024F0000A3582E0A80EB11C82E0E80EF11CCE1570
:10250000DF0559F780E1680E711C60960C171D07F6
:1025100031F07E0180E1E81AF1085301DECF00546A
:102520001F4F80ECC80ED11C073F83E0180781F6CF
:10253000DF91CF911F910F91FF90EF90DF90CF909F
:10254000BF90AF909F908F907F906F900895CF93A2
:10255000C82F6FEF811162E283E290E00E940A359A
:102560006FEFC11165E084E290E00E940A356FEFE1
:10257000C11168E085E290E0CF910C940A3580E0CB
:102580000E94A71260E086E290E00E940A350E9455
:1025900054120E94441281E00C94A7120F931F93CF
:1025A000CF93DF9320E1629FE001112450E0440FBC
:1025B000551FC40FD51F30EC839FC00DD11D1124B2
:1025C000CE0187960E94F634082F10E0102F0027C6
:1025D000CE0188960E94F6349801282BC901DF911C
:1025E000CF911F910F910895462F843038F47C309D
:1025F00028F4683018F4672F0C94CE1290E080E035
:102600000895CF92DF92FF920F931F93CF93DF93A2
:102610006C010091ED0480917702082BC7E0D0E0B7
:1026200010E0FC2EC8010C2E02C0959587950A94E7
:10263000E2F780FD0CC02197A0F7F12C8F2DDF91E0
:10264000CF911F910F91FF90DF90CF900895B60129
:102650008C2F0E94F4120E94DE0C019761F3EECFE2
:10266000CF93DF93EC010E940113BE010E94F4128C
:10267000DF91CF910C94DE0CFC01808191810E944E
:10268000301392959F70963091F058F4925F9F703E
:10269000923058F4803F19F030F4883E30F481E0F5
:1026A00008959A5FF4CF843FD1F380E00895883E87
:1026B000B0F3813FD1F7F3CF83E290E00E94F6348C
:1026C000823289F484E290E00E94F634853059F435
:1026D00085E290E00E94F63491E0883009F090E0C5
:1026E000892F8170089580E0FCCF8091BE04909185
:1026F000AD02892B8093DA019091AE029923A1F06B
:10270000892B8093DA01809154018823D9F180913B
:10271000B80487FF37C08EE1ECEDF1E090E0815026
:1027200098F591110E94680E40E250E067E572E072
:102730008AED91E00E94E034892B59F180E2EAEDC4
:10274000F1E0A7E5B2E001900D928A95E1F7E09102
:10275000AF04F091B0043097E1F0809154018823E8
:1027600059F08091B80487FF07C08091DA01809307
:10277000DB0186E08093DA010280F381E02D8AEDAF
:1027800091E0099486E0C8CF2191222341F29F5F16
:10279000C6CF0895882321F00E94780E0C947513FB
:1027A0000895882339F09091BE04982B9093BE042D
:1027B0000C94751308951F93CF93DF93162F8A30CF
:1027C00031F481E0DF91CF911F910C9499148D30F9
:1027D00011F480E0F7CFC091EE04D091EF0496E0C1
:1027E000FE01AFE9B4E001900D929A95E1F7803EC9
:1027F000A8F186E0FE0111928A95E9F7C091EE04F6
:10280000D091EF04111136C046E050E0BE018FE9CF
:1028100094E00E94E0349E01205F3440892BA9F5AA
:102820002A5F3F4F4091F006642F70E0C9010E947B
:102830001834481B463010F4240F311D211572E066
:10284000370710F030E020E020513B4F3093EF0489
:102850002093EE04DF91CF911F910895F6E08F9FB2
:10286000B0011124695C784F46E050E0CE010E942F
:10287000CA34C4CF9E012A5F3F4FFE012E173F0787
:1028800019F2808180958193F9CFC90145E0969531
:1028900087954A95E1F741E050E0BA0102C0660F22
:1028A000771F8A95E2F7CB016091A5047091A60489
:1028B000862B972BB9016B5F7F4FE5E07695679587
:1028C000EA95E1F702C0440F551F6A95E2F7842BA1
:1028D000952B9093A6048093A504A2CF0F931F93EA
:1028E000CF93DF93EC01FC0101900020E9F78F0109
:1028F00001501109C017D10728F0DF91CF911F9126
:102900000F91089560E089910E94DB13F3CF1F932C
:10291000CF93DF93EC01162FFE018491811104C047
:10292000DF91CF911F910895612F0E94DB132196B3
:10293000F3CFCF93382FE091EE04F091EF04E05FF6
:10294000F4402091F006622F70E0CF010E9418340D
:10295000281B822F332369F066E00E942C34C82F95
:10296000C15010F4CF91089560E080E20E94DB1323
:10297000F7CF9F01280F311D2115324018F080E05C
:10298000F0E0E0E08E0F9F2F911D80519B4F9093C0
:10299000EF048093EE04E6CFCF92DF92EF92FF92A6
:1029A0006B017C010E94BF0AB701A60188E090E09C
:1029B000FF90EF90DF90CF900C941C35EF92FF9238
:1029C0000F931F93CF93DF9300D00F92CDB7DEB755
:1029D000082FF62E142FE22E80919A0480FF3DC01E
:1029E000E82FE695F0E0EC54FE4F908190936A0357
:1029F0008E7F8230E1F5493708F048E79E012F5F6E
:102A00003F4F6F2D802F0E94D50A4B8169818A81AB
:102A10000E94401180919B04801308C080919C0407
:102A20008F1104C080919D04811729F080916C035F
:102A3000826080936C0300939B04F0929C0410933B
:102A40009D04EE2051F060919A0470919B04809156
:102A50009C0490919D040E94CC140F900F900F90B5
:102A6000DF91CF911F910F91FF90EF9008959230D9
:102A700019F410919D04CECF80919B04963011F0F3
:102A8000993041F6082FC6CFEAE9F4E0438121E10D
:102A9000421B08F440E021E0628181810C94DE1445
:102AA000EAE9F4E0438121E1420F08F44FEF21E02D
:102AB000628181810C94DE14EAE9F4E0628121E113
:102AC000621B08F460E021E0438181810C94DE14F4
:102AD000EAE9F4E0628121E1620F08F46FEF21E09E
:102AE000438181810C94DE14EAE9F4E0818121E0E4
:102AF0004381628188500C94DE14EAE9F4E081811C
:102B000021E043816281885F0C94DE1480919E04F1
:102B1000882319F0815080939E0460919A047091EB
:102B20009B0480919C0490919D040C94CC14809102
:102B30009E04833018F48F5F80939E0460919A0402
:102B400070919B0480919C0490919D040C94CC14F2
:102B5000EAE9F4E083E0808311828FEF828388E7E3
:102B600083831482AAE6B3E012968C911297836055
:102B700012968C9360817181828193810C94CC1424
:102B800069EE7EEF90E080E00E94283560E082E010
:102B900090E00E940A3560E083E090E00E940A35F0
:102BA0001092770260E084E090E00E940A3560E0D5
:102BB00082E290E00E940A3560E085E090E00E94A9
:102BC0000A3560E086E090E00E940A356FEF87E00A
:102BD00090E00E940A3540E050E0BA0188E090E0C1
:102BE0000E941C3560E08DE090E00E940A3540E0D4
:102BF00050E0BA0188E190E00E941C3560E087E176
:102C000090E00E940A3540E050E0BA018CE190E08B
:102C10000E941C3570E060E080E290E00E94283560
:102C200040E050E0BA0188E190E00E941C3580E06D
:102C30000E94A7120E94BF1240E050E0BA018FE04C
:102C400090E00E941C3540E050E0BA0183E190E042
:102C50000C941C35DF92EF92FF920F931F93CF934A
:102C6000DF937901C82F880FDD0B41155105A9F0BD
:102C7000FE0193E0EE0FFF1F9A95E1F7E050FF4F42
:102C8000818192818D579D4F208130E042175307FB
:102C900008F49A01A9010E94ED34CE010E94A233EA
:102CA000D82E8823D1F001151105B9F083E0CC0F9F
:102CB000DD1F8A95E1F7FE01E050FF4F438150E0B0
:102CC0000417150708F4A801C050DF4F6C817D81FF
:102CD0006D577D4FC7010E94ED348D2DDF91CF914F
:102CE0001F910F91FF90EF90DF9008950F931F9326
:102CF000CF93DF93CDB7DEB728970FB6F894DEBF3A
:102D00000FBECDBF85E0EAE9F4E0DE011196019047
:102D10000D928A95E1F780916A0390916B03A091DF
:102D20006C038E839F83A88718856091B30270918E
:102D3000B4028091B5029091B6020E94DE09643619
:102D400071058105910510F41123C1F010E000E038
:102D500030E020E048E050E0BE016F5F7F4F86E04A
:102D60000E942A16882369F00E94FA096093B30230
:102D70007093B4028093B5029093B60210926C03E4
:102D800081E028960FB6F894DEBF0FBECDBFDF916D
:102D9000CF911F910F9108950F931F93CF93DF93BE
:102DA00000D00F92CDB7DEB76091AF027091B00244
:102DB0008091B1029091B2020E94DE0941E0643636
:102DC00071058105910508F440E03091BE04398316
:102DD000643671058105910520F42091900223133A
:102DE00041E09091AD029A83411106C041E02091EB
:102DF0009102291301C040E09091AE029B834111E2
:102E000005C08091920211E08917C9F010E000E03E
:102E100030E020E043E050E0BE016F5F7F4F85E08F
:102E20000E942A16182F882351F00E94FA096093F5
:102E3000AF027093B0028093B1029093B202812FDF
:102E40000F900F900F90DF91CF911F910F910895E8
:102E50000F931F93CF93DF9300D000D0CDB7DEB791
:102E60006091A9027091AA028091AB029091AC028C
:102E70000E94DE0911E0643671058105910518F1A3
:102E80000E9429126E5F7F4F8F4F9F4F69837A8315
:102E90008B839C8310E000E030E020E044E050E0D1
:102EA000BE016F5F7F4F84E00E942A16182F88238F
:102EB00051F00E94FA096093A9027093AA028093CC
:102EC000AB029093AC02812F0F900F900F900F9058
:102ED000DF91CF911F910F9108957F928F929F92D2
:102EE000AF92BF92CF92DF92EF92FF920F931F9318
:102EF000CF93DF930F92CDB7DEB7762E4A015901FB
:102F0000680101E010E09E012F5F3F4F50E040E07C
:102F100070E060E00E942A16182F882309F43EC052
:102F2000F40160817181828193810E94DE0964369F
:102F300071058105910538F4B701C6010E949C0A0C
:102F40009981891759F18701950150E040E070E0BF
:102F500060E0872D0E942A16B82EB701C6010E9494
:102F60009C0A11E09981981310E01B2139F00E940E
:102F7000FA09F4016083718382839383812F0F9018
:102F8000DF91CF911F910F91FF90EF90DF90CF9045
:102F9000BF90AF909F908F907F900895A701B6014A
:102FA000C5010E94ED34EACFCF92DF92EF92FF92FB
:102FB0000F931F93CF93DF9300D000D000D0CDB7F5
:102FC000DEB76B0186E0E82EF12C04E812E09E01EA
:102FD0002F5F3F4F41EA52E061E080E00E946D17B1
:102FE000882349F096E0FE013196ABE9B2E001900A
:102FF0000D929A95E1F796E0EBE9F2E0D6010190A7
:103000000D929A95E1F726960FB6F894DEBF0FBEA3
:10301000CDBFDF91CF911F910F91FF90EF90DF9087
:10302000CF90089590E080E00E940435893E9E4F45
:1030300011F40C945C1380E008951F920F920FB668
:103040000F9211242F933F934F935F936F937F932E
:103050008F939F93AF93BF93EF93FF938091E10082
:1030600082FF09C08091E20082FF05C08091E100EB
:103070008B7F8093E1008091DA0080FF24C08091F3
:10308000D80080FF20C08091DA008E7F8093DA0024
:103090008091D90080FF9DC080E189BD82E189BD1A
:1030A00009B400FEFDCF81E08093E3048091BD046C
:1030B000811109C00E9450080E941B098091E20002
:1030C00084608093E2008091E10080FF17C08091CE
:1030D000E20080FF13C08091E2008E7F8093E200C7
:1030E0008091E20080618093E2008091D80080624C
:1030F0008093D80019BC85E08093E3048091E100BF
:1031000084FF2BC08091E20084FF27C080E189BD4D
:1031100082E189BD89B5982F917080FFFBCF8091A6
:10312000D8008F7D8093D8008091E1008F7E8093BE
:10313000E1008091E2008F7E8093E2008091E200C6
:1031400081608093E2008091E404882309F447C001
:1031500084E08093E3048091E3048091E10083FFA5
:1031600027C08091E20083FF23C08091E100877F28
:103170008093E10082E08093E3041092E404809164
:10318000E1008E7F8093E1008091E2008E7F80934A
:10319000E2008091E20080618093E20042E060E022
:1031A00080E00E94E9088091F00088608093F00040
:1031B000FF91EF91BF91AF919F918F917F916F910F
:1031C0005F914F913F912F910F900FBE0F901F90E5
:1031D000189519BC1092E3041092BD0474CF80912D
:1031E000E30087FD93E09093E304B5CF78941F92BA
:1031F0001FB61F9211248F939F93AF93BF9380911B
:10320000B4049091B504A091B604B091B7040196AE
:10321000A11DB11D8093B4049093B504A093B6048E
:10322000B093B704BF91AF919F918F911F901FBE34
:103230001F9018959C014FB7F8948091B404909119
:10324000B504A091B604B091B7044FBF821B930B95
:1032500008952FB7F8948091B4049091B504A0918B
:10326000B604B091B7042FBF08950E9429199C019C
:103270009091600380916103982B21F030935D035E
:1032800020935C039091620380916303982B21F05B
:1032900030935B0320935A03E091AF04F091B004A4
:1032A000309749F082E080935E030480F581E02D41
:1032B0008EE593E00994089590E080E00E94460A2C
:1032C00090E080E00E94300A1092AD020E947513D7
:1032D00086E0EEE5F3E0DF011D928A95E9F71092B2
:1032E000580310925703109259030C943519809388
:1032F000ED040C945C198091ED04982F9670963033
:1033000019F488600C947719877FFCCF21E030E0B6
:1033100001C0220F8A95EAF720958091ED0482235F
:103320000C947719909156028095892380935602C8
:10333000282F277091F4282F082E000C330B92179A
:10334000130659F09091B90492FD07C085958595B3
:1033500085950E948619109256020895CF93C091C8
:10336000B904C2FB992790F9981799F080FBC2F92C
:10337000C093B9046091B80484E090E00E940A35DB
:103380006C2F82E290E00E940A3582E0CF910C948B
:103390009219CF91089521E030E001C0220F8A9563
:1033A000EAF78091ED04822B0C94771980937702D1
:1033B0000C945C1980915401ECEDF1E0882359F0F4
:1033C0008091B80487FF07C08EE1DF011D928A95C6
:1033D000E9F70C945C1986E0F8CF1F93CF93DF9345
:1033E000CDB7DEB7AA970FB6F894DEBF0FBECDBF3C
:1033F00085EE94E02091F100DC012D93CD01B4E045
:103400008D3E9B07B9F78091E604833009F472C0C2
:10341000B8F4813009F449C0823009F4B5C0809114
:10342000E80083FF8DC28091E5049091E6049A3014
:1034300008F086C2E92FF0E0E05CFA4C0C949B3473
:103440008A3009F490C08B3009F471C0893039F7A3
:103450008091E504813219F78091E9049091EA04A2
:10346000009711F00297D9F68091E800877F80934A
:10347000E8008091E80082FF38C09091F3008091CD
:10348000F200029731F48091F100813011F0863022
:1034900021F48091F1008093C0048091E8008B7743
:1034A0008093E8000E94CA08BACF8091E504813A6F
:1034B00009F0B5CF8091E800877F8093E800809184
:1034C000E9049091EA04892B61F460E281EC94E0D4
:1034D00070E00E947C098091E8008B778093E8007F
:1034E0009ECF60E090E080E0F3CF8091E304811113
:1034F000C0CF95CF8091E504813A09F090CF8091BB
:10350000E9049091EA04892B09F089CF8091E800C1
:10351000877F8093E8008091E80080FFFCCF809156
:1035200054018093F1008091E8008E77B9CF8091AB
:10353000E504813209F073CF8091E9049091EA04A7
:10354000892B09F06CCF8091E800877F8093E80099
:103550000E94CA088091E704809354011092BE042F
:103560000E94DA195CCF8091E504813209F057CFCF
:103570008091E800877F8093E8000E94CA088091CC
:10358000E8048093BF044BCF8091E504813A09F0B1
:1035900046CF8091E800877F8093E8008091E80023
:1035A00080FFFCCF8091BF04BCCF803899F0823877
:1035B00009F0C6C18091E9048F70873008F0C0C15E
:1035C0008093E9008091EB0085FB882780F91092B9
:1035D000E90006C08091E1049091E20491118260BB
:1035E0009091E800977F9093E8008093F10010920B
:1035F000F1008091E8008E779FC1882309F48DC186
:10360000823009F09DC18091E704811190C18091C1
:10361000E9048F702FEF280F263008F091C18093B6
:10362000E9002091EB0020FF82C1933031F48091BA
:10363000EB0080628093EB007AC19091EB00906187
:103640009093EB0021E030E001C0220F8A95EAF769
:103650002093EA001092EA008091EB008860EACFA4
:1036600081116EC11091E7041F778091E30080788B
:10367000812B8093E3008091E800877F8093E800AE
:103680000E94CA088091E80080FFFCCF8091E3008F
:1036900080688093E30082E0111183E08093E3046B
:1036A0004FC18058823008F04BC12091E70430911F
:1036B000E8042C3DE3E03E07A1F583E08A838AE23B
:1036C00089834FB7F894DE01139620E03EE051E283
:1036D000E32FF0E050935700E49120FF03C0E29500
:1036E000EF703F5FEF708E2F90E0EA30C0F0C7962A
:1036F0008D939D932F5F243159F74FBF8091E80040
:10370000877F8093E8006AE270E0CE0101960E9414
:103710007C098091E8008B778093E80011C1C09606
:10372000E7CF8091E9049091EA04432F5527433075
:10373000510509F44AC078F54130510509F47AC0C1
:103740008BE590E0EBE7FFE04230510509F0F8C06F
:103750002091E800277F2093E8002091EB0430912E
:10376000EC048217930708F49C0140E02115310511
:1037700009F065C0411163C08091E80082FDC9CFA6
:103780008091E304882329F2853019F28091E800C2
:1037900083FFF2CFBECF4132510509F43CC0423223
:1037A000510509F0CDC08330910508F0C9C0FC0176
:1037B000EE0FFF1FE453FE4F0190F081E02D875381
:1037C0009E4FDC018C9190E01AC0332721303105E7
:1037D000D1F02115310561F02230310509F0B0C07A
:1037E000E8EEFFE0E4918E2F90E0E8EEFFE007C006
:1037F000E4E0F0E1E4918E2F90E0E4E0F0E1009766
:1038000009F49EC0A5CFE6EFFFE0E4918E2F90E093
:10381000E6EFFFE0F4CF8330910508F091C0880F08
:10382000991FFC01EE52FE4F0190F081E02D89E0DE
:1038300090E08ECF82E190E0E6EDFFE089CF8091CD
:10384000E304882309F465CF853009F462CF8091C1
:10385000E80083FD5ECF8091E80082FD8DCF8091EE
:10386000E80080FF83CF9091F3008091F200211552
:10387000310519F08830910550F041E0089709F0C2
:1038800040E08091E8008E778093E8006FCF44910C
:103890004093F1003196215031090196E8CF8038EC
:1038A00009F04EC08091E800877F8093E800809106
:1038B000E4048093F1009DCE811142C01091E70491
:1038C0001230F0F58091E800877F8093E800109334
:1038D000E4040E94CA08112311F084E005C080911D
:1038E000E30087FDFACF81E08093E30442E061ECDE
:1038F00081E00E94E90842E261EC84E00E94E9086C
:1039000042E261EC82E00E94E90842E260EC83E07E
:103910000E94E9088091E30413C08091E70481309C
:1039200079F481E0933009F080E08093E204109212
:10393000E9008091E800877F8093E8000E94CA0830
:103940008091E80083FF0AC08091E800877F809320
:10395000E8008091EB0080628093EB00AA960FB69E
:10396000F894DEBF0FBECDBFDF91CF911F910895B8
:103970001F920F920FB60F9211242F933F934F93E4
:103980005F936F937F938F939F93AF93BF93CF93E7
:10399000DF93EF93FF93D091E900DF708091EC000B
:1039A000C82FC17080FDC0E81092E9008091F0003E
:1039B000877F8093F00078940E94ED191092E900BF
:1039C0008091F00088608093F000CD2BCF70C09381
:1039D000E900FF91EF91DF91CF91BF91AF919F915E
:1039E0008F917F916F915F914F913F912F910F90A8
:1039F0000FBE0F901F901895882379F19CEF980FB8
:103A0000913A38F4682F8AED91E00E94060A0C94EE
:103A1000751390E2980F983050F4877091E001C0D0
:103A2000990F8A95EAF7892F0E94780EF0CF9BE5CF
:103A3000980F933020F490E080E00C94460A98E5CB
:103A4000980F973120F490E080E00C94300A803F8A
:103A500020F00E946B0B0C9435190895CF93C82F5A
:103A6000882309F49CC08CEF8C0F813A08F064C065
:103A7000809154018823D1F18091B80487FF36C02A
:103A8000EC2FE695E695E695F0E0E652FE4F828152
:103A900090E04C2F477021E030E002C0220F331F2E
:103AA0004A95E2F782239323892B61F06C2F8AEDEC
:103AB00091E00E94060A0E94751322C08091B8040A
:103AC00087FF22C0EC2FE695E695E695F0E0E652FA
:103AD000FE4FC77021E030E001C0220FCA95EAF71F
:103AE0008281822B8283CF910C947513ECEDF1E0EF
:103AF00082EE91E02191C217C9F28E179F07D1F78C
:103B0000809154018111DACFACEDB1E0EFEF80E0AC
:103B10009D91C91741F3EF3F19F4911101C0E82FAE
:103B20008F5F8630A9F7EF3FF1F20E2E000CFF0BEE
:103B3000E652FE4FC283D7CF80E28C0F883068F404
:103B4000C77021E030E001C0220FCA95EAF78091EA
:103B5000BE04822B8093BE04C6CFEBE5EC0FE330AE
:103B600040F4F0E0E55AFE4F808190E0CF910C9454
:103B7000460AE8E5EC0FE73150F4F0E0EE0FFF1FE6
:103B8000E25AFE4F80819181CF910C94300AC03F60
:103B900030F08C2F0E94260CCF910C943519CF91C8
:103BA00008951F93CF93DF93182FD0E0C0E089339F
:103BB00011F4C0E5D0E0812F0E942E1D209731F432
:103BC000812FDF91CF911F910C94FC1C8FE99FE016
:103BD0000197F1F700C000002197F0CFCF92DF925C
:103BE000EF92FF920F931F93CF93DF930F92CDB776
:103BF000DEB7EE24E394F12C0BE812E09E012F5F78
:103C00003F4F45EA52E063E082E00E946D17082FC3
:103C1000882331F1C090CB028C2D90E09C01255E71
:103C20003C4F79011981F9018081181BD12E80E068
:103C30000CC0DA94F70180818F5F8083F1E0FC157E
:103C400018F08AEA0E94D11D802F1D1494F3912F41
:103C500017FD90E0191B11110EC081110E94660E14
:103C6000802F0F90DF91CF911F910F91FF90EF90D8
:103C7000DF90CF9008951F5FF7018081815080838E
:103C8000F1E0FC1518F089EA0E94D11D802FE3CFE6
:103C90000E94F51181110C9429190E942912CB015F
:103CA000089560919A04669570E041E050E08EE4DA
:103CB00091E00E94D334892B19F481E080936B0347
:103CC0000E94481E909365038093640380916C0367
:103CD000846080936C03089590919A0490FF3BC098
:103CE000917081112EC0926090939A0480916C0320
:103CF000816080936C03662351F060919A04709107
:103D00009B0480919C0490919D040E94CC1460912E
:103D10009A04669570E041E050E08EE491E00E94E4
:103D2000D334892BA9F00E94B80A81E080936703FD
:103D300020E040919D0460919C0480919B040C9430
:103D4000DE14853110F09862CFCF880F982BCCCF3E
:103D50000E94511EEACF089580919A048695815061
:103D600009F484E161E00C946C1E80919A048695BC
:103D70008F5F853108F081E061E00C946C1E9091BA
:103D80009A0490FF07C09695981720F0961710F4A4
:103D90000C94B51E61E00C946C1E3F924F925F92A2
:103DA0006F927F928F929F92AF92BF92CF92DF924B
:103DB000EF92FF920F931F93CF93DF9300D000D029
:103DC0000F92CDB7DEB77C01FC0183819481892BF2
:103DD00031F08081918189238F3F09F0C4C40F9015
:103DE0000F900F900F900F90DF91CF911F910F9137
:103DF000FF90EF90DF90CF90BF90AF909F908F900B
:103E00007F906F905F904F903F9008950E940113B4
:103E1000182F682F89819A810E94B10E69817A8159
:103E2000812F0E94F4128C01F7012281222309F4D0
:103E30008EC490568115F0E29F0750F0905E811578
:103E400030E1930728F0915C81159F4108F053C041
:103E5000C8019927AC01445051094432510518F06A
:103E60008B970E9780F4E091E102F0E0EE0FFF1FD8
:103E7000EA51FD4F808191818F3F3FE7930719F011
:103E8000019691838083C80182519F45409708F035
:103E9000EEC38FEF93E00E94F634025157E2852E75
:103EA00053E0952E8823E9F180915602877009F43A
:103EB00096CFF7018281882309F491CF8091B904CC
:103EC00082FD8DCF82E00F900F900F900F900F909A
:103ED000DF91CF911F910F91FF90EF90DF90CF90E6
:103EE000BF90AF909F908F907F906F905F904F901A
:103EF0003F900C94921990E080E00F3F110511F073
:103F000008F0A8CFC801A6CF811484E0980661F21A
:103F1000C4010E94F634811101C001509FEF891A3B
:103F2000990A0111F1CF1C821B82442443944AE078
:103F3000342E84010F5F1F4FC4010E94F634898321
:103F40001A82882309F4B0CF9FEF980F9330F8F4CA
:103F50008A834982E2E08E0E911CC8010E94F634E9
:103F60008B83882309F4A0CF8E010F5F1F4FF801C8
:103F700020812223F1F2213009F043C09181828116
:103F8000913039F40E5F1F4F0E94D11D08C04801C7
:103F9000EBCF923039F40E5F1F4F0E942E1D0F5F42
:103FA0001F4FE5CF933029F40E5F1F4F0E94FC1C7A
:103FB000F6CF943019F00F5F1F4FF1CF0E5F1F4FF8
:103FC00030E020E0B8016F5F7F4FF80141818053FE
:103FD000990B8A30910550F02150310900F38FE997
:103FE0009FE00197F1F700C00000F6CF329EF0018C
:103FF000339EF00D11249C012E0F3F1F842F8B0147
:10400000E1CFE22FF0E0EC50FE4F5490822F8695E6
:104010008695869590E0FC01EC51FE4F64902770E8
:10402000712C022E02C0759467940A94E2F7E1E0C5
:104030006E227724FC01EC52FE4FA490B12C022E8C
:1040400002C0B594A7940A94E2F7F1E0AF22BB2432
:10405000FC01EC53FE4FC490D12C02C0D594C79400
:104060002A95E2F721E0C222DD246114710419F0DF
:1040700081EE0E942E1DA114B10419F086EE0E945B
:104080002E1D852D0E94D11DAB2819F086EE0E94B1
:10409000FC1C672819F081EE0E94FC1CCD2809F455
:1040A0007ECF8CE271CF81E00E94CB190E947B19F8
:1040B000FBCE81E00E948619F9CF222309F451C377
:1040C00082E0F2CF043C9CE5190709F47AC044E78A
:1040D00055E16DE775E1053C1C4509F0F0C20E9411
:1040E000B20AE2CE083CFCE51F0709F479C008F4E7
:1040F00072C0093C3CE5130709F477C040E555E17F
:1041000064E475E10A3C1C4551F3D9C2003DECE57D
:104110001E0709F47FC0A8F40D3C2CE5120709F432
:1041200073C008F46CC00E3C8CE5180709F46FC02E
:1041300068E086E00F3C1C4509F0C1C20E94BF1E2A
:10414000B3CE063DECE51E0730F464E18FE0023D9E
:104150001C45A0F3A9CE0D351D4509F4A5CEAFC26F
:1041600080919A0480FF20C08E7F80939A04609192
:104170009A0470919B0480919C0490919D040E94EC
:10418000CC140E94B80A80916C03816080936C0308
:104190003FEF80E792E0315080409040E1F700C06F
:1041A00000000E94191080CE816080939A0461E023
:1041B00086950E946C1E78CE4CEA5EE165EB7EE14E
:1041C0008ECF45EB5EE16CEA7EE189CF4DE755E1AC
:1041D00064E775E184CF4CE555E168E675E17FCF92
:1041E00048E655E16CE575E17ACF44E455E160E5D8
:1041F00075E175CF46E855E167E975E170CF47E9AC
:1042000055E166E875E16BCF61E081E0D2CF65E012
:1042100082E094CF6EE089E091CF0A35EDE51E078C
:1042200069F158F401152CE51207C9F00E3D1C4543
:1042300009F045C20E94C01537CE0B358DE5180731
:10424000F9F00C351D4509F03AC28091B90482FBA2
:10425000882780F991E089270E94AE1930C2109218
:10426000BE040E94DA19EFEFF4E32CE0E150F040D5
:104270002040E1F700C000000E94F50F81E0ECCF84
:1042800080E0EACFC8010E94890ED82E27C2212FD4
:104290002F70C22E107F19F0C29490EFC922DD203A
:1042A000B9F0CC2069F080E2800F883010F08110E6
:1042B00009C08091BE04C82AC092BE040E94751332
:1042C000802F4BC08091AD02C82AC092AD02F6CFBC
:1042D000802F0E94FC1CCC2009F441C0005E0830F5
:1042E00010F0811004C08C2D0E94780E06C0C0947E
:1042F0008091AD02C822C092AD020E9475132FC0FA
:10430000312F3F70C32E107F103219F0C29480EF0E
:10431000C822882089F081E0881609F478C0DD2061
:1043200009F482C0BB2009F478C0F701858180FFC1
:10433000C7CF8F70858371C08091B90482FF4AC056
:10434000DD2009F441C0CC2039F08091BE04C82A98
:10435000C092BE040E94751380E00E942E1DE92DBC
:10436000E850FF0B349710F40E941912AA2009F4A8
:1043700036CD8091560280FD32CDF70112828595AF
:10438000859585950E94CB19C7010E94CD1E80910D
:1043900056028595859585950F900F900F900F90FB
:1043A0000F90DF91CF911F910F91FF90EF90DF90D1
:1043B000CF90BF90AF909F908F907F906F905F90C5
:1043C0004F903F900C94861980E00E94FC1CCC20FA
:1043D00031F289CFDD2071F08091AE028C29B110CD
:1043E00003C00E94D113BBCF91E0B912FACF0E9453
:1043F0006E0EB5CFB11006C00E94680E8C2D0E94C3
:10440000CA13ADCFE1E0BE1609F4A9CFF5CFDD2088
:1044100031F0F5E0FB1508F4A2CF8C2DE2CF24E0BB
:104420002B1508F49CCFEACFBB2041F3F9E38F12A0
:1044300017C12FEF37EE83E0215030408040E1F785
:1044400000C000000DC1812F86958695837061F0B4
:10445000813009F084CFC8019370D11002C090E080
:1044600080E00E94300A7BCFC8019370D11002C057
:1044700090E080E00E94460A72CF802FDD2029F074
:104480000E94260C0E9435196ACF0E946B0BFACF4E
:10449000812F837089F5D11062CF402F42954695C8
:1044A0004770440F440F802F8F70042E01C0880F77
:1044B0000A94EAF7202F207104FF07C02FE030E0B4
:1044C00001C0220F4A95EAF72095169516951370AC
:1044D000123069F050F430917702113029F0822BBC
:1044E00083230E94D6193BCF832B822BFACF282B14
:1044F000809177028227F5CF8695DD2011F0812FFC
:104500008170882309F42BCF402F42954695477040
:10451000440F440F802F8F70042E01C0880F0A941F
:10452000EAF7202F207104FF07C02FE030E001C020
:10453000220F4A95EAF720951695169513701230BA
:1045400069F050F43091ED04113029F0822B83236F
:104550000E94771904CF832B822BFACF282B8091CE
:10456000ED048227F5CF1F70DD2029F0812F0E94F6
:10457000CB19802F36CF802F0E94CA13812F0E9423
:104580008619EDCE802F92EF8916A9F1981570F05B
:10459000E0EF8E16D1F0F1EF8F1691F0DD2009F4E7
:1045A0005AC0B1108DCE812F8F7129C023EF821692
:1045B00049F134EF8312F2CF8091B90482FF2DC00C
:1045C000812F8F71DD20D9F21AC0DD2079F084E0CF
:1045D0008B1508F4C4CE1F7181E090E001C0880FF4
:1045E0001A95EAF79091ED048927B2CF95E09B15D3
:1045F00008F4B5CEF0CF812F8F71D110C0CF0E94BB
:10460000CB19ADCE80E0DD2009F4A2CF1F7181E08F
:1046100001C0880F1A95EAF79BCFDD2089F01F7142
:10462000812F0E94CB198091B90482FD07C0E8E078
:104630001E9FC0011124836080935602812FDFCF1B
:1046400081E00E949219F1E0FB1508F088CE82E02B
:104650000E94921984CEBB2039F0893309F4E9CE47
:10466000802F0E94FC1C7BCE812F8F7188CF003160
:10467000FFE51F0709F417CD01313FE5130709F4E2
:104680001CCD2111CACD8091BE0482720B3C3CE549
:10469000130709F4AFCD08F039CD063CECE51E0751
:1046A00009F494CD08F01ECD033C2CE5120709F463
:1046B00083CD08F007CD023C1C4509F451CDF7012C
:1046C000828100811181882309F4DCCDC8010E9418
:1046D0000113D82E682FC8010E94B10EB8018D2D8C
:1046E0000E94F4120E94DE0C8C01882EF701D28009
:1046F000B580B2943FE0B322809156028770C1F03A
:10470000AD2CDD20B1F0812F807F803421F080E25C
:10471000800F883068F08091B90482FD09C082E082
:104720000E949219809156028770AA24A394811145
:10473000A12C912E92942FE09222FBE0F91508F41F
:104740000ECEE92DF0E0E65BFA4C0C949B34003180
:104750008FE5180709F4ADCC01319FE5190709F081
:1047600092CF82E0A7CC85E0DE01119601900D92F8
:104770008A95E1F7F701228189819A81211146CB3F
:104780000E94890E182F4ACB1F93CF93DF938091FD
:104790002302807FA9F480912002882389F08091F0
:1047A0005502D091240260911E0270911F02A091C7
:1047B0002102B0912202C62FC72316E0D81304C0ED
:1047C000DF91CF911F91089590E0109711F0CF3FA6
:1047D00019F401968770F2CF189F9001199F300D40
:1047E0001124F901EB5DFD4F41814713F2CF408168
:1047F0004613EFCF42814111ECCF438154814A1BD4
:104800005B0B483C510528F7809123028F70806133
:1048100080932302F901E65DFD4F80818F708061F6
:1048200080838EE192E00E94CD1EDF91CF911F9197
:104830000C947F0EAF92BF92CF92DF92EF92FF92D5
:104840000F931F93CF93DF93CDB7DEB761970FB66A
:10485000F894DEBF0FBECDBF8C0185E0F801DE010C
:104860001D9601900D928A95E1F7F801E2808EE1A4
:10487000A82E82E0B82E609121027091220261156B
:10488000710509F432C190911E0240911F02892FD7
:1048900084238F3F09F429C120813181C380D480D2
:1048A000F0902002F601E61BF70BFF2009F4E8C0A8
:1048B00080912302582F507FE83CF10508F0ABC0EF
:1048C000511177C0FE2C431321C092131FC0E11079
:1048D0001DC08F70806180932302C5010E94CD1E90
:1048E00080912302F80185838F2D61960FB6F8948D
:1048F000DEBF0FBECDBFDF91CF911F910F91FF9013
:10490000EF90DF90CF90BF90AF900895CD2829F021
:10491000822F83238F3F09F003C180E0F82FF170CD
:10492000DF2E80FF3CC0809155024091240256E06A
:10493000841315C02D873E878D859E850E94301378
:10494000292F22952F702230F0F0243018F59F7017
:10495000F1F0F8019581907FD1F4D12C1EC090E048
:10496000589FF001599FF00D1124EB5DFD4F6181BF
:10497000361306C06081261303C06281E6120FC0A1
:1049800001968770D5CF9F7011F0882331F3805E38
:10499000883018F3C8010E94CD1EFD2CA5CFEE2053
:1049A00009F4A2CF80912302816080932302F12C2D
:1049B0009BCF431306C0921304C0F801EE2009F404
:1049C00079C0C8010E943C13882309F1EE20F9F058
:1049D00080912302803270F020911E0230911F02DC
:1049E00038872F831986DB86CA868C87CE01079687
:1049F0000E94CD1E86E0F801AEE1B2E001900D927A
:104A00008A95E1F70E94C423FF24F3946DCFC80177
:104A10000E94CD1EF9CF51110AC08EE192E00E9492
:104A2000CD1E86E0F50111928A95E9F7C0CF4313B8
:104A30000FC092130DC0E1100BC0F8018583C801AF
:104A40000E94CD1E86E0F50111928A95E9F74CCFC0
:104A5000C8010E943C138823D1F2EE20C1F280915C
:104A60002302803238F220911E0230911F023A83D5
:104A700029831B82DD82CC828E83CE010196B8CF42
:104A8000E83CF105F8F6FE2CEE2009F243131FC0B6
:104A900092131DC08091230280FD10C0982F907F3B
:104AA00069F0F8018583903F31F0982F907F905FF7
:104AB0008F70892B8583C8010E94CD1E86E0F80186
:104AC000AEE1B2E001900D928A95E1F70DCFC801F9
:104AD0000E943C1381118ECF8091230281608093CC
:104AE0002302C8010E94CD1EFFCEEE2009F48FCF15
:104AF000C8010E943C13F82E882309F488CF86E071
:104B0000F801AEE1B2E001900D928A95E1F7809153
:104B10001E0290911F020E9430130E94C423E4CE13
:104B200081E08E25FBCE1F93CF93DF93CDB7DEB709
:104B300067970FB6F894DEBF0FBECDBF4B8B5C8B73
:104B40006D8B7E8B8F8B61111092AD021A8A198A40
:104B500085E0FE017396DE011D9601900D928A9507
:104B6000E1F786E0FE013D96DE01179601900D9279
:104B70008A95E1F7CE0107960E941A24882389F0CE
:104B800016E0809155029091240289134BC06796DC
:104B90000FB6F894DEBF0FBECDBFDF91CF911F914E
:104BA000089586E0FE013796DE01119601900D9280
:104BB0008A95E1F78A859B85892B11F38F819885EA
:104BC00089238F3FE9F22091240230E0C901019648
:104BD00087709927409155024817190681F4109261
:104BE000BE040E94DA19109224021092550286E047
:104BF000EEE1F2E0DF011D928A95E9F7C1CF96E080
:104C0000929FD001939FB00D1124AB5DBD4FFE016B
:104C1000319601900D929A95E1F7809324020E94BB
:104C20007F0EAECF819FC00111248B5D9D4F0E94EE
:104C30001A24882309F4ABCF8091550290E00196A5
:104C400087709927809355029CCF9F92AF92BF9215
:104C5000CF92DF92EF92FF920F931F93CF93DF9348
:104C6000CDB7DEB762970FB6F894DEBF0FBECDBFEB
:104C70008E010F5F1F4F8CE0D8011D928A95E9F7D6
:104C80008EE8C82E81E0D82EF12CE12CAA24A39422
:104C9000B12CF60181916F018F3F09F444C0F89463
:104CA000E82FE295EF70F0E021A18F70A50102C01E
:104CB000440F551F8A95E2F7CA01922F982B91A3B2
:104CC00092A18095892382A30E94820C00C0E4E90E
:104CD000F1E0912C31E021912F3F09F479C0A22F0E
:104CE000A295AF70B0E090968C9190E02F7002C0CA
:104CF000959587952A95E2F780FD6AC0832F982ABB
:104D0000330F51E0EC39F50731F7F6013197808127
:104D10008F3F11F00E94840C80EA8A95F1F7F80128
:104D2000EE0DFF1D90829FEFE91AF90AA6E0EA1640
:104D3000F10409F0AECF4CE050E0B8018CEB92E00A
:104D40000E94E0347C01892B41F08CE0F801ACEB4F
:104D5000B2E001900D928A95E1F71091C902E11439
:104D6000F104C1F181E080937A020E9429199093A5
:104D700079028093780280917802909179020E9462
:104D80001A19059778F0ACEBB2E0E12FF0E0E55BA3
:104D9000FC4F82EC92E02D9121938A179B07D9F763
:104DA00010927A0281E090E0EF28C1F062960FB68F
:104DB000F894DEBF0FBECDBFDF91CF911F910F9151
:104DC000FF90EF90DF90CF90BF90AF909F900895AD
:104DD00080E095CF80917A028111CDCF0E94F511AC
:104DE000D82EE091C902AE01435F5F4F7A0188235C
:104DF00009F47EC086E0DA011D928A95E9F70E2F4C
:104E000010E0055B1C4F8091B7028A30E8F544ED55
:104E100057E1B701C8010E94B111882309F444C0C9
:104E20004EEE5DE1B701C8010E94B1118823E1F1A6
:104E300048E257E1B701C8010E94B1118823A1F1EE
:104E40004CEC56E1B701C8010E94B111882361F111
:104E500046E756E1B701C8010E94B111882321F14C
:104E60001092B7028091C80290E046E050E0B7018E
:104E7000855B9C4F0E94E03421E020938102892BC6
:104E800051F5D12C8D2D92CF80917B0290917C0297
:104E90000E941A19843F914008F0B9CF8091810295
:104EA000811112C080E082CF8091B7028F3F29F03C
:104EB0008F5F8093B7028A30A8F20E9429199093DD
:104EC0007C0280937B02EACF86E0F70111928A95FB
:104ED000E9F710928102A091C802B0E0A55BBC4F37
:104EE00086E0FE013D9601900D928A95E1F7CACFCA
:104EF000F0E0E55BFC4FF89486E0A4E8B2E00190B6
:104F00000D928A95E1F766E070E084E892E00E94F5
:104F10009C0A809383020E94820CF894E0911E0305
:104F2000F0E0E55EFC4F80818D8780938B0261E02D
:104F300070E0C7010E949C0A80938A020E94820C42
:104F4000F894C0908C02D0908D02E0908E02F09088
:104F50008F0280917D0290917E02A0917F02B0919C
:104F60008002C816D906EA06FB06D1F0C0927D027F
:104F7000D0927E02E0927F02F09280020E94F511B0
:104F800081110EC00E94FA09C61AD70AE80AF90A66
:104F9000C092B802D092B902E092BA02F092BB027B
:104FA0000E94820CF894809190028093BE048091BC
:104FB00091028093AD02809192020E946E0E0E9437
:104FC000820CF89480919A02882379F180FF0DC0B9
:104FD0008091930280FF2CC090919A0491609093ED
:104FE0009A0460E086950E946C1E80919A0281FF6F
:104FF00009C020E040919602609195028091940250
:105000000E94DE1480919A0282FF06C0809199026C
:10501000882389F00E94511E80919A0283FF03C069
:1050200081E08093670310929A020E94820C3ACF2B
:105030000E949A11DACF0E94B80AEECF1F921FB6D3
:105040001F9211248F939F93AF93BF938091B304CA
:10505000811113C08091B4049091B504A091B6045D
:10506000B091B7044196A11DB11D8093B4049093F3
:10507000B504A093B604B093B704BF91AF919F91CC
:105080008F911F901FBE1F901895CDB7DEB7E49784
:105090000FB6F894DEBF0FBECDBF84B7877F84BF45
:1050A0000FB6F894A89580916000886180936000A5
:1050B000109260000FBE80E890E00FB6F8948093E5
:1050C0006100909361000FBE85B7806885BF85B78A
:1050D000806885BF80E89CE09093D9018093D801D7
:1050E0000E9450080E941B098091E2008460809316
:1050F000E20078948091E3048823A1F01091E90004
:105100001F709091EC00892F817090FD80E8182B22
:105110001092E9008091E80083FD0E94ED191F7054
:105120001093E90082E084BD93E095BD9AEF97BDAE
:1051300080936E001092B8021092B9021092BA02D7
:105140001092BB020E945C13811102C00E94BF1228
:105150000E94F5118093380180913801882309F469
:1051600076C010924F0180E3809350010E94F511A8
:1051700081110E94B532809138018091380196E00A
:10518000811190E09093C90286E0891B8093C80248
:105190000EE811E034E9E32E31E0F32ED8018D91D1
:1051A0008D018F3F11F00E94840CE016F106B1F7DB
:1051B00004E911E02CE9E22E21E0F22EF8018191C0
:1051C0008F018F3F11F00E94840CE016F106B1F7B9
:1051D0008CE0EBE4F3E0DF01282F1D922A95E9F73C
:1051E000ECEBF2E0DF011D928A95E9F70E941218BC
:1051F000811102C00E94C01582E090E00E94F63446
:105200008093CE0284E090E00E94F634182F82E270
:1052100090E00E94F634982F812F9093B9048093E8
:10522000B8040E942526EFE3FCE93197F1F700C0AE
:1052300000000E94252680914B0380FF0DC06FEF78
:105240007FEF90E080E00E9428350E94F50F80E318
:1052500080934F0184E388CF83E090E00E94F6348E
:105260000E94D6190E94F51181119BC3109246032A
:1052700080E88093F0060E944D316DE070E087E891
:1052800092E00E94EF0E892BE9F58091460363E0DE
:1052900070E081FD8BC384E892E00E94EF0E892BC1
:1052A00089F56DE070E084E792E00E94EF0E892BB3
:1052B00049F50E94FA09605A75418F4F9F4F6093DC
:1052C000A7047093A8048093A9049093AA04E0EF24
:1052D000F4E080E092E0DF019C011D92215030401B
:1052E000E1F7F093EF04E093EE048FEF9FEF9093DC
:1052F000A6048093A50481E08093AC048093AB0462
:10530000109247038091CA02811138C00E9412187E
:10531000811104C00E94C0150E94A81588E090E089
:105320000E94FE3460939A0470939B0480939C04C3
:1053300090939D0480916C03836080936C036E7FD7
:1053400071F40E94A81588E090E00E94FE346093FA
:105350009A0470939B0480939C0490939D040E94F4
:10536000BF0A0E94B80A80919A0480FF04C060E0DE
:1053700086950E946C1E81E08093CA0224982C9A24
:1053800025982D9AEFE8F1E03197F1F700C0000081
:1053900083B1829581701D990CC390E0892B809315
:1053A0001F039091380181E0982790931E03891B79
:1053B0008093CB020E94F511811102C00E94B83285
:1053C00089E391E09093B0048093AF0494E6892E32
:1053D000912CA12CB12C8091E304FF24F39400E1E3
:1053E00012E1853009F433C30E9425268CA7811170
:1053F0000E94FA098BE4682E83E0782EEFECF2E04D
:10540000D30110E000E0C02EED9081918E1509F4DB
:1054100040C38E25D12CFF24F394982F9F2109F4AB
:1054200033C30E94F511882399F0D9A2CAA2EF20B4
:1054300081E009F480E08BA30E9429198160782F14
:105440009DA38CA349A15AA16BA18DA10E94932574
:10545000F801E153FD4F8081F826F0820E94F5119A
:10546000882309F4AEC0C090E602D090E7020D2C6C
:10547000000CEE08FF0810914501212F30E0E6EE08
:10548000F2E081E090E03296281739070CF018C35B
:105490006091E2027091E3028091E4029091E50252
:1054A0000E94DE091B012C0149EC24163104410441
:1054B000510414F18091E10290E0019669E170E0FD
:1054C0000E9446348093E102880F991FFC01EA5143
:1054D000FD4F11821082812F183108F087E18F5F14
:1054E000809345010E94FA096093E2027093E302FF
:1054F0008093E4029093E50282E0C816D104E104AF
:10550000F1040CF4E9C2A0E6BAEEA70196010E94EC
:10551000A8346B017C0198EC199F90011124032E93
:10552000000C440B550B220D331D441D551DA5E0E9
:10553000B0E00E94A8349B01AC01C701B6010E94F3
:105540005A3469017A01A1EFCA16D104E104F104C9
:105550002CF010EFC12ED12CE12CF12C6091DD024A
:105560007091DE028091DF029091E0020E94DE09DC
:105570001B012C01B5E62B1631044104510484F0C3
:105580000E94FA096093DD027093DE028093DF02CD
:105590009093E002809120038093DC02C092DB02B2
:1055A0001091DC02A091DB02A11BBB0BA2019101B7
:1055B0000E94B334A50194010E947C34120F109311
:1055C000200380916B03882309F464C080916A03EF
:1055D000E0919A04E695E81BE0936603823009F0B7
:1055E0007FC2F0E0E356FD4FE4910E2F10E0B6E8E5
:1055F000EB2EB1E1FB2E80916703882361F01092BE
:1056000067030E94481E9093650380936403109281
:105610006903109268030E94481EE0916403F091B0
:1056200065039C012E1B3F0B2F3F3F4798F52091B0
:105630001A032223B1F010921A032091180330911B
:105640001903821B930B8F3F9F4758F4205D3A4804
:10565000309319032093180380916C038860809322
:105660006C03C0906803D0906903E00FF11FF093C2
:105670006503E093640384E693E0F7010995809164
:10568000680390916903892B29F4CD2819F081E0F2
:1056900080931A03E0911F03EE0FEE0FE0931F03B8
:1056A00083B1829581708DA71EA61D9949C280E0A5
:1056B0002DA53EA5822BE82BE0931F0310911E031E
:1056C000EF70F0E0E456FE4F808190911D03890F4A
:1056D00080931D0384300CF436C2E12FF0E0E55EC8
:1056E000FC4F80818F5F8083123008F02EC28AEADF
:1056F0000E94D11D31E03BA780911D038D3F7CF4BA
:10570000E12FF0E0E55EFC4F808181508083123014
:1057100008F01EC289EA0E94D11D81E08BA780910A
:105720001D03082E000C990B64E070E00E944634C3
:1057300080931D03ABA5A1110E94660E8091AC045D
:10574000882351F180914803909149030E941A19CE
:10575000C29708F000C22091A5043091A60421153B
:10576000310509F0F0C28091AB048823A9F00E94B2
:10577000FA090091A7041091A8042091A90430917E
:10578000AA04601B710B820B930B6F3F7F4F8F4FEF
:105790009F4710F40E941F0F4CA5411102C08BA51A
:1057A00081110E943A0F86E0EEE5F3E0DE011196EA
:1057B00001900D928A95E1F7F0906003E09061030B
:1057C00010916203009163031092600310926103D1
:1057D00010926203109263038F2D8E2909F448C042
:1057E00080915C0390915D030E941A199C01909135
:1057F0005803992309F44CC525313105C8F19F3F61
:1058000019F09F5F90935803FF2059F00E94060CF7
:105810009FEF1F140CF491E0899F802D1124809339
:105820006003EE2059F00E94060C9FEF1E140CF44A
:1058300091E0899F802D1124809361033091600352
:105840003323B1F020916103222391F045EB34031F
:10585000C0011124992309F44EC39093600345EBD2
:10586000240390011124332309F449C330936103C5
:10587000812F802B09F448C080915A0390915B03DB
:105880000E941A199C0190915703992309F4FBC4B3
:1058900021353105C8F19F3F19F09F5F9093570361
:1058A000112359F00E94E40B9FEF11160CF491E0C4
:1058B000899F802D112480936203002359F00E9458
:1058C000E40B9FEF10160CF491E0899F802D1124BA
:1058D00080936303309162033323B1F0209163031B
:1058E000222391F045EB3403C0011124992309F4DC
:1058F0000AC39093620345EB2403900111243323E0
:1059000009F405C3309363038091600390916103B0
:10591000892B90916203892B90916303892B11F05D
:105920000E94351986E0FE013196AEE5B3E00190A4
:105930000D928A95E1F70E94191290914A038913FA
:1059400080934A038091E304843009F044CD83E0DE
:105950008093E9008091E80082FF3DCD8091E800CE
:1059600090E085FF0CC00E946F0830E2E32EF12C1E
:105970008E010F5F1F4F882309F4D7C291E08091F9
:10598000E8008B778093E800992309F424CDE9811E
:10599000E150E33108F02DC3F0E0EA5AFA4C0C94E0
:1059A0009B3481E08093460380E263CC81E892E0FF
:1059B00074CC92E0F3CC8091E304843009F437C0D6
:1059C0000E941F0F0E94B80A8091CD02811109C068
:1059D000F092CD0280919A0481708093CC020E9453
:1059E0009A110E941F0F1092B30488E190E0A0E486
:1059F0000FB6F894A895809360000FBEA093600046
:105A000083B7817F846083BF83B7816083BF7894CD
:105A1000889583B78E7F83BF0FB6F894A895809141
:105A20006000886180936000109260000FBE8091DA
:105A3000E204882361F00E942526EBE4F3E08191E3
:105A4000811100C427E533E02E173F07C1F780918D
:105A5000E304853009F4AFCF1092BE040E94DA1936
:105A60000E9419121092CD028091CC02882349F035
:105A700080919A04816080939A0460E086950E94E8
:105A80006C1E0E94511EB0CCD394FF0C38E0D31290
:105A9000C4CC0F5F1F4F0C30110509F0B4CC8FEF51
:105AA0008EA38FA318A60E9429198160782F9AA728
:105AB00089A74EA15FA168A58AA50E949325CECC97
:105AC00040815181052E000C660B770BC40ED51E4C
:105AD000E61EF71E0196D7CCC12CD12C76013ECD07
