:100000000C94E6080C941E090C941E090C948B3475
:100010000C941E090C941E090C941E090C941E09C4
:100020000C941E090C941E090C94D2180C94D71F22
:100030000C94F6290C941E090C941E090C941E09AC
:100040000C941E090C941E090C941E090C941E0994
:100050000C941E090C94AB190C941E090C941E09E7
:100060000C941E090C941E090C941E090C941E0974
:100070000C941E090C941E090C941E090C941E0964
:100080000C941E090C941E090C941E090C941E0954
:100090000C941E090C941E090C941E090C941E0944
:1000A0000C941E090C941E090C941E0905010902EA
:1000B000A10185020901A100050919012905150001
:1000C00025019505750181029501750381010501E1
:1000D000093009311581257F950275088106093897
:1000E0001581257F950175088106050C0A380215D2
:1000F00081257F950175088106C0C005010980A191
:1001000001850319012AB700150126B7009501756D
:10011000108100C0050C0901A101850419012AA064
:1001200002150126A002950175108100C005010984
:1001300006A1018506050719E029E71500250195A7
:1001400008750181020507190029EF1500250195A1
:10015000F0750181020508190129059505750191C0
:1001600002950175039101C00660FF0961A10109B3
:1001700062150026FF0095207508810209631500AD
:1001800026FF00952075089102C005010906A1010E
:10019000050719E029E71500250195087501810279
:1001A0009501750881010507190029FF150026FF33
:1001B0000095067508810005081901290595057542
:1001C000019102950175039101C00000000000003B
:1001D000000000000000000000000000000000001F
:1001E00000000000000000000000000000007E0F82
:1001F00000D4FFFFFFC700000078000000000000EF
:1002000000002A2B28000000000000000000000071
:10021000000000000029000000002C1E34202122D4
:1002200024342627252E362D3738271E1F2021223D
:10023000232425263333362E37381F0405060708B6
:10024000090A0B0C0D0E0F101112131415161718A6
:10025000191A1B1C1D2F3130232D350405060708E4
:10026000090A0B0C0D0E0F10111213141516171886
:10027000191A1B1C1D2F3130354C00DA0281FFD9B1
:10028000F1DB20A4A62EAF00A0C000A1C800AED50F
:1002900080A81FD300408D1420002D2D2D2D2D0062
:1002A00020002E0053435220002E004E554D2000BA
:1002B0002E0043415020002000556E6465660033D7
:1002C000003200310030004C595220002D2D2D2DD0
:1002D0002D00F8FEFEFFFFFFFFFFFFFFFFFFFFFF08
:1002E0003F0E0604FEFEFFFFFFFFFFFFFEFEFCF8D1
:1002F000F0C07FFFFFFFFFFFFFFFFFFFFFFFFFFFDC
:10030000F0C08080FFFFFFFFFFFFFFFFFFFFFF7FC9
:100310003F0F00010103030303030303030303036C
:1003200003010100010103030303030301010000B2
:1003300000000000000000000000000080C0C0E0DD
:10034000E0E0E0E0E0E0E0E0E0E0E0E0E0C0C0804D
:1003500080C0C0E0E0E0E0E0E0E0E0C0C08000009D
:10036000000000000000000000000000000000008D
:10037000000000000000000000000000000000007D
:10038000000000000000000000000000000000006D
:10039000000000000000000000000000000000005D
:1003A000000000000000000000000000000000004D
:1003B0000000000000000000000000FFFFFFFFFF42
:1003C000FFFFFFFFFFFFFFFFFFFFFFFF0F03010026
:1003D00001FFFFFFFFFFFFFFFFFFFFFFFFFFFFFE2C
:1003E000FCF0000000000000000000FEFEFE000027
:1003F00000000000FEFEFE000000FEFEFEFCF8E035
:10040000C080E0F8FCFEFEFE0000808080808080DE
:1004100000000078FCFECECECECEFE7C780000F050
:10042000F8FC3E1E0E0E1E3EFCF8F0000000000020
:100430000000000000000000000000FFFFFFFFFFC1
:10044000FFFFFFFFFFFFFFFFFFFFFFFFF0C0800088
:1004500080FFFFFFFFFFFFFFFFFFFFFFFFFFFF7FAB
:100460003F0F0000000000000000000F3F3F7C70C5
:100470007070707C3F3F0F0000007F7F7F0001079E
:100480000F0F0701007F7F7F0000030303030303B7
:1004900001001E3F7F7B7171717B7F3F1E00000F4B
:1004A0001F3F7C787070787C3F1F0F0000000000B9
:1004B000000000000000000000000000010307072A
:1004C00007070707070707070707070707030301CA
:1004D00001030307070707070707070303010000D6
:1004E000000000000000000000000000000000000C
:1004F00000000000000000000000000000000000FC
:1005000000000000000000000000000000000000EB
:1005100000000000000000000000000000000000DB
:1005200000000000000000000000000000000000CB
:100530000000FD377A585A000004E6D6B44602009F
:10054000210116000000742FE5A3E00786023E5D3E
:10055000003D8889C65436C3174FE4E74D00A1D942
:100560000E8C8D8693259B8558BEC4659F8A38F373
:10057000519D8F03F60FE6D404C103CFBFDD55C9EB
:10058000B045F99C284E4289A607300D5C5A82A4DA
:100590008C82528DA75B394C245B09F9E1C3BF51B2
:1005A0000CE94BDB849813C06766AF3DAE6FDFF498
:1005B000355D52A4407EC5444B2BAD47395B118E4F
:1005C0009E8B6A6F96203A412CC9F94C5DFCCB3C5E
:1005D00048017798F071055DAE1A08054FE5E9E727
:1005E000E47077A15C2226FCFD8ED06746656C9195
:1005F000B7EF1786AB55622C3514AB814CCDA9CF24
:10060000E9808F9ABD77AFB2EEEDA9077718E2BC0B
:1006100037DBD361CB21F91540876859DCBE75EF14
:10062000EB7C435D0E974C7617A68CA27F749328C3
:10063000A6B0017C5ABCBECCB3E851BE80C6D60D74
:100640007E012AE3B167D976CB05E25F656C7E2235
:100650001343B8D6C020D118440B16E8DFB4E8A87D
:10066000E128F313DE50CE51E63FCFDF0E761A0DB0
:10067000C0880F4B0F1BF7B0024B4972175BC4EFDA
:100680003C7C3D8D41C62535A075342363C19D3525
:1006900064686A3BD2C803F8522F43641FE66F2395
:1006A000522E6F81F037E998F143A2F02D59278E31
:1006B000366ABABFD0B7BBF244CC873F7CB2D08495
:1006C000BC8EBD494E2F478A3128BD529406C3DAED
:1006D000B84F31A5D6646151000A2D90444C0C26C8
:1006E00042E73FB3A13D869ED6A4829BA1A1F3EA37
:1006F00024CAC6B23E2D4B3D3E88FD29D4A199FCAB
:1007000077ABB5E8448DA5FF3D433B86C40C98DC30
:10071000F76A0B00E67AB0804D11AAA3A308045D26
:100720003BC0BE2BF1802ED5ED688472F0C870E11D
:1007300047BA31635E03AE0F9691971C72B40EAE4A
:10074000119C54C9FEA79E64F74662E6689CBFA749
:100750003990A8565C57AF30D0F641DABFD472E872
:10076000A9B092AB104BC3FFD038324604206AB414
:1007700094FBDF715451ED4A41B06CC821F6B06E64
:10078000F2C51AFEF8BB029550CCF12BF9500000CF
:1007900000009BA96EEAFB1F61D20001DA04870FFB
:1007A0000000EB84A2FEB1C467FB0200000000045D
:1007B000595A000101010101010101010202020275
:1007C00002020202020303030303030303040404FB
:1007D00004040404050505050506060606060707C4
:1007E00007070708080808090909090A0A0A0B0B7C
:1007F0000B0C0C0C0D0D0D0E0E0E0F0F0F1010111B
:1008000011111212131314141515161617171818A0
:1008100019191A1A1B1B1C1D1D1E1E1F2020212208
:1008200022232424252626272829292A2B2C2D2D4E
:100830002E2F30313232333435363738393A3B3C6B
:100840003D3E3F404142434445464748494A4C4D5E
:100850004E4F50515354555658595A5B5D5E5F6127
:100860006264656668696B6C6D6F707273757778BA
:100870007A7B7D7E8082838587888A8C8E8F919318
:100880009596989A9C9EA0A2A3A5A7A9ABADAFB13F
:10089000B3B5B7BABCBEC0C2C4C6C9CBCDCFD1D424
:1008A000D6D8DBDDDFE2E4E7E9EBEEF0F3F5F8FACA
:1008B000FDFFAA00A900AA00A90001000100010093
:1008C0000100010001000100010001000100010020
:1008D000010029003A003B003C003D003E003F0083
:1008E000000035001E001F00200021002200230010
:1008F00000002B0014001A0008001500170000006B
:100900001E00390004001600070009000A0000005C
:100910001F00E1001D001B0006001900050000007B
:100920002000E000E300E20001512C000000000084
:1009300021004000410042004300440045004C00BB
:10094000A80024002500260027002D002E003500D9
:100950002A001C0018000C00120013002F003000A9
:1009600031000B000D000E000F0033003400280092
:100970004A0011001000360037003800E500000082
:100980004B002C00E600E400500051004F005200E4
:100990004E00010001000100010001000100010002
:1009A0000000010001000100010001000100010040
:1009B0000000010001000100010001000100000031
:1009C0000100010001000100010001000100000020
:1009D0000100010001000100010001000100000010
:1009E0000100010001000100010001000000000001
:1009F00001000100010001000100010001000100EF
:100A000001000100010001000100010001000100DE
:100A100001000100010001000100010001000100CE
:100A200001000100010001000100010001000100BE
:100A300001000100010001000100010001000000AF
:100A4000010001000100010001000100010001009E
:100A5000010001000100010001000100010001008E
:100A6000000001000100010001000100010001007F
:100A70000000010001000100010001000100000070
:100A8000010001000100010001000100010000005F
:100A9000010001000100010001000100010000004F
:100AA0000100010001000100010001000000000040
:100AB000010001000100010001000100010001002E
:100AC000010001000100010001000100010001001E
:100AD000010001000100010001000100010001000E
:100AE00001000100010001000100010001000100FE
:100AF00001000100010001000100010001000000EF
:100B000001000100010001000100010001000100DD
:100B100001000100010001000100010001000100CD
:100B200000000100010001000100010001000100BE
:100B300000000100010001000100010001000000AF
:100B4000010001000100010001000100010000009E
:100B5000010001000100010001000100010000008E
:100B6000010001000100010001000100000000007F
:100B7000010001000100010001000100010001006D
:100B8000010001000100010001000100010001005D
:100B9000010001000100010001000100010001004D
:100BA000010001000100010001000100010001003D
:100BB000010001000100010001000100010000002E
:100BC000010001000100010001000100010001001D
:100BD000010007087F0807003E5B4F5B3E003E6B4D
:100BE0004F6B3E001C3E7C3E1C00183C7E3C1800B7
:100BF0001C577D571C001C5E7F5E1C0000183C18B3
:100C00000000FFE7C3E7FF00001824180000FFE71B
:100C1000DBE7FF0030483A060E0026297929260036
:100C2000407F05050700407F05253F005A3CE73C13
:100C30005A007F3E1C1C0800081C1C3E7F0014222A
:100C40007F2214005F5F005F5F0006097F017F0065
:100C5000006689956A0060606060600094A2FFA2EF
:100C6000940008047E04080010207E20100008086C
:100C70002A1C0800081C2A0808001E10101010006A
:100C80000C1E0C1E0C0030383E383000060E3E0E96
:100C9000060000000000000000005F0000000007E8
:100CA00000070000147F147F1400242A7F2A1200FA
:100CB00023130864620036495620500000080703D9
:100CC0000000001C224100000041221C00002A1CE0
:100CD0007F1C2A0008083E080800008070300000D1
:100CE00008080808080000006060000020100804E0
:100CF00002003E5149453E0000427F4000007249DB
:100D0000494946002141494D33001814127F100013
:100D10002745454539003C4A4949310041211109DF
:100D20000700364949493600464949291E00000056
:100D300014000000004034000000000814224100AC
:100D4000141414141400004122140800020159095B
:100D500006003E415D594E007C1211127C007F4915
:100D6000494936003E41414122007F4141413E0018
:100D70007F49494941007F09090901003E4141512C
:100D800073007F0808087F0000417F410000204079
:100D9000413F01007F08142241007F404040400055
:100DA0007F021C027F007F0408107F003E4141410A
:100DB0003E007F09090906003E4151215E007F097E
:100DC0001929460026494949320003017F010300E1
:100DD0003F4040403F001F2040201F003F40384020
:100DE0003F0063140814630003047804030061598E
:100DF000494D4300007F414141000204081020009A
:100E0000004141417F000402010204004040404093
:100E100040000003070800002054547840007F2859
:100E200044443800384444442800384444287F006F
:100E300038545454180000087E09020018A4A49CD9
:100E400078007F080404780000447D4000002040C2
:100E5000403D00007F102844000000417F4000001A
:100E60007C04780478007C08040478003844444406
:100E70003800FC182424180018242418FC007C08CE
:100E80000404080048545454240004043F4424003B
:100E90003C4040207C001C2040201C003C40304056
:100EA0003C004428102844004C9090907C004464FE
:100EB000544C440000083641000000007700000058
:100EC0000041360800000201020402003C262326ED
:100ED0003C00000000000000404040F0F8F8FF38FF
:100EE000FFF8F83FF8F8FF38FFF8F8F0404040000E
:100EF000000000000080C0C0C0800000C0C08000B2
:100F0000000080C0C000C0C0000080C0C000000061
:100F10000000C0C0C0C0C000C0C000000000000091
:100F200000000000000000000000000000000000C1
:100F300000000000000000000000000000000000B1
:100F400000000000000000000000000000000000A1
:100F500000C0F0F8FC3E1E06010000007F41414148
:100F60007F007F4141417F000080C0E07E5B4F5B9E
:100F7000FEC00000C000DCD7DEDEDED7DC00C00033
:100F80000000000000000000000000000000000061
:100F90000000000000000000494949FFFFFFFFE09A
:100FA000DFBFBF00BFBFDFE0FFFFFFFF49494900D0
:100FB000000000001F3F6060E0BF1F007F7F071E32
:100FC000381E077F7F007F7F0E1F3B71600000008F
:100FD00000007F7F0C0C0C007E7E007F7E030300F0
:100FE0007F7E03037E7E03037F7E000F3E703C0600
:100FF0003C703E0F00327B49493F7E007F7E0303F9
:10100000001E3F69696F260000000000000000001C
:1010100000030F1F3F3C7870600000007F4141419A
:101020007F007F4141417F00307B7F78302020303E
:10103000787F3B0003000F7F0F0F0F7F0F0003002F
:1010400000000000000000000000000000000000A0
:101050000000000000000000010101070F0F7F0FDA
:101060007F0F0F7E0F0F7F0F7F0F0F070101010012
:10107000000000000000000000010100000000006E
:101080000000000000000000000000000000000060
:101090000000000000000000000000000000000050
:1010A0000000000000000000000000000000000040
:1010B0000000000000000000000000000000000030
:1010C0000000000000000000000000000000000020
:1010D0000000000000000000000000000000000010
:1010E0000000000000000000000000000000000000
:1010F00000000000000000000000000000000000F0
:1011000000000000000000000000000000000000DF
:10111000000000AF00AE09025B00030100A0FA0965
:101120000400000103010100092111010001224016
:101130000007058103080001090401000203000003
:10114000000921110100012222000705820320006D
:101150000107050303200001090402000103000048
:101160000009211101000122BC00070584032000B1
:10117000011201000200000008654D41320100012A
:101180000203011C037600690061006C003A0066EE
:101190000036003400630032006200330063000058
:1011A00000160355004D002D003800300020005679
:1011B00000690061006C0000000C034D00650072C6
:1011C00000670065000000040309040011241FBE2D
:1011D000CFEFDAE0DEBFCDBF04B603FE18C08091CA
:1011E000A2069091A306A091A406B091A50687300F
:1011F000904BA740B04B59F41092A2061092A30650
:101200001092A4061092A506E0E0F8E3099511E01B
:10121000A0E0B1E0E8EFFCE602C005900D92A43C2E
:10122000B107D9F726E0A4ECB1E001C01D92A23AC3
:10123000B207E1F70E941D2A0C9456360C94000068
:101240009091A106899FC0011124811522E0920787
:1012500014F090E080E08F559B4F9093A004809312
:101260009F040895E8EDF0E080818E7F80831092E6
:10127000E2001092DA001092E100A0EEB0E08C9152
:1012800081608C9380818F77808319BCA7EDB0E05B
:101290008C918E7F8C9380818F7E808310926E04E0
:1012A00008952091E4003091E50095E6A901209190
:1012B000EC00822F817020FF06C08091E80080FF43
:1012C00006C080E008952091E80022FD1AC08091B8
:1012D0009D04882389F0853089F08091EB0085FD9D
:1012E0000FC02091E4003091E50042175307F9F256
:1012F0009150E1F684E0089582E0089583E0089536
:1013000081E00895EF92FF920F931F93CF937C019A
:101310008B010E945109C82F811117C08091E800EC
:1013200085FD0BC08091E8008E778093E8000E94D5
:101330005109882399F3C82F08C0F70181917F01D3
:101340008093F1000150110949F78C2FCF911F9123
:101350000F91FF90EF900895CF93FC0180919D0431
:10136000843001F5C091E900CF702091EC00922FFC
:10137000917020FD90E8C92B82E08093E900809174
:10138000E80080FF0CC050E040E060E270E0CF0178
:101390000E9482098091E8008E778093E800CF70E8
:1013A000C093E900CF9108958091950487FF13C001
:1013B0008091E80082FF06C08091E8008B778093DF
:1013C000E80004C080919D048111F2CF08958091BE
:1013D0009D048823D9F38091E80080FFF8CF8091A5
:1013E000E8008E77ECCF982F9093E900242F762F8A
:1013F00050E0891731F07091EC002091ED00509190
:10140000F00021FD07C09F5F973071F78093E900DE
:1014100081E008953091EB003E7F3093EB003091F6
:10142000ED003D7F3093ED003091EB003160309363
:10143000EB007093EC002093ED005093F0002091AE
:10144000EE0027FDE0CF80E00895CF92DF92EF928B
:10145000FF920F931F93CF93DF93C8EDD0E0888165
:101460008F7E8883E7EDF0E080818160808384E077
:1014700082BF81E080936E0488818E7F888302EE34
:1014800010E0F80110821092DA0081EEC82ED12C03
:10149000F601108288818F778883888180688883AD
:1014A00088818F7D888319BC10929D0410929404CA
:1014B000109293041092920490EEE92EF12CF70111
:1014C00080818B7F808388818160888342E060E0B7
:1014D00080E00E94F309F60180818E7F8083F8010D
:1014E000808181608083808188608083F701808132
:1014F0008E7F8083888180618883DF91CF911F9167
:101500000F91FF90EF90DF90CF900895FC018091B4
:101510009B0490919C0486179707A0F061157105B4
:1015200029F49091E8009E779093E80090E061158F
:10153000710551F4911108C08091E80082FF34C018
:1015400080E00895BC01F2CF80919D048823C1F111
:101550008530C1F18091E80083FD30C08091E800C2
:1015600082FDEACF8091E80080FFE1CF8091F30017
:101570002091F200382F6115710519F028303105DE
:1015800058F091E02830310509F090E02091E80012
:101590002E772093E800CBCF81918093F1006150AA
:1015A00071092F5F3F4FE7CF80919D04882341F061
:1015B000853041F08091E80083FFBECF81E008953F
:1015C00082E0089583E0089508958091710408955C
:1015D0002FB7F89460916504709166048091670458
:1015E000909168042FBF0895209151012223C9F0E2
:1015F0002091690427FF15C0E62FE695E695E6954C
:10160000EE31D8F4E80FF92FF11D677021E030E0DA
:1016100001C0220F6A95EAF7209582812823228350
:101620000895FC01329608962191621303C0DF01F0
:1016300011971C92E817F907B9F7089520916204F1
:10164000309163042817390771F0909363048093F5
:101650006204E0916004F0916104309721F000840D
:10166000F185E02D0994089520915E0430915F0486
:101670002817390771F090935F0480935E04E0911E
:101680006004F0916104309721F00680F781E02D2D
:1016900009940895CF93DF9320919F043091A00483
:1016A000215A3440A901460F571F4130524020F0C3
:1016B00060E072E0621B730B409156045091570436
:1016C000FC01C901620F731FC1E0D0E086179707C4
:1016D00038F05093570440935604DF91CF9108950A
:1016E0002491DC01AF55BB4F3C91321781F02C9314
:1016F0009C01A5E036952795AA95E1F7DE0102C089
:10170000AA0FBB1F2A95E2F79D014A2B532B019686
:101710003196DCCFFC01680F791F8FEF91E32191A7
:10172000822728E030E087FF09C0880F89272150F1
:101730003109C9F7E617F70791F70895880FF7CF32
:10174000FA01811101C0FB01099480914404982F92
:101750009E7F71F480914404817082608093440480
:1017600080914704893718F088E7809347040895EB
:10177000843080F7F5CF90910E03803F59F480912B
:101780000F0387FF0DC010920F0391110BC0109231
:10179000060308C0813F81F480910F0318169CF363
:1017A000992381F08091100390911103892B09F006
:1017B00064C0109205030895823F49F497FFF0CF6B
:1017C00010920E0380910F038111ECCFE0CF833F85
:1017D00019F41916ACF3E4CF20911003893F29F4D2
:1017E0001216F4F610921003DBCF8A3F19F427FF8C
:1017F000D7CFF8CF209111038B3F29F427FFD0CF0B
:1018000010921103CDCF8C3F19F41216CCF3C8CF30
:10181000843F31F480910D038E7F80930D03C0CF00
:10182000853F21F480910D038D7FF7CF863F21F412
:1018300080910D038B7FF1CF873F21F480910D03C1
:10184000877FEBCF883F21F480910D038F7EE5CF1A
:101850008D3F31F4809107038E7F80930703A0CFE3
:101860008E3F21F4809107038D7FF7CF8F3F09F0E2
:1018700097CF809107038B7FF0CF08958091070366
:1018800080FD16C081FD16C082FD16C08091050343
:101890008823A1F0883280F428E0829FC0011124BF
:1018A00068E270E00E94C735862F672B39F00895F3
:1018B00082E0089584E0089588E0089581E0089525
:1018C0008091070380FD14C081FD14C082FD16C005
:1018D00080910603882381F08E3180F420E5829F79
:1018E000C00111246EE170E00E94C735862F089573
:1018F00084E1089588E2089588E0089580E50895D8
:10190000803F31F40E94600C819580930F0308950D
:10191000813F19F40E94600CF8CF823F31F40E949D
:10192000600C819580930E030895833F19F40E9403
:10193000600CF8CF893F29F40E943E0C809310037D
:1019400008958A3F21F40E943E0C8195F7CF8B3F8A
:1019500031F40E943E0C81958093110308958C3FD1
:1019600019F40E943E0CF8CF843F31F480910D03AE
:10197000816080930D030895853F21F480910D03CC
:101980008260F7CF863F21F480910D038460F1CF10
:10199000873F21F480910D038860EBCF883F21F4CD
:1019A00080910D038061E5CF8D3F31F48091070375
:1019B00081608093070308958E3F21F4809107038F
:1019C0008260F7CF8F3FB9F7809107038460F1CF32
:1019D00080E0089578940895F894E82FE295EF70E8
:1019E000F0E031A1282F2F7081E090E001C0880F36
:1019F0002A95EAF7982F9095932391A392A1892B8A
:101A000082A30C94EA0C9091690492FF06C0282FDF
:101A100028712830F9F4877F846093FF06C0282F4F
:101A200028712831F1F4877E846120916A0420FFB7
:101A300006C0382F38713830D9F4877F816021FF94
:101A400006C0282F28712831D1F4877E816194FD4A
:101A5000877E0895282F24712430F9F68B7F8860C3
:101A6000DCCF282F2471243101F78B7E8861DDCFF4
:101A7000382F3171313019F78E7F8860E0CF282FF1
:101A80002171213121F78E7E8861E1CFCF93DF93E1
:101A9000EC0182389105A9F1D8F58133910509F45B
:101AA00096C048F58932910509F48AC08A9709F4ED
:101AB00095C0C11521E5D20708F0BCC0C11530E5BD
:101AC000D30708F014C1C83ED10508F09CC0C03E41
:101AD000D10560F5C83AD10508F087C0C53AD105EF
:101AE00008F0FDC0C130D10509F12097F9F0C430EC
:101AF000D105E0F440C08533910509F45AC0C99777
:101B0000C1F680916904837089F0C0EED0E00EC008
:101B1000833E910599F170F4803E910501F1823E7A
:101B2000910539F68091690482FD21C0CE01DF91D3
:101B3000CF910895863E910561F1873E910571F13F
:101B4000843E910509F0B5CF80916A0481FFEECF04
:101B500080916904C7EED0E084FD0DC0E7CF80918D
:101B6000690480FD12C190916A0490FFDFCFC3EE3B
:101B7000D0E084FFDBCFD0E0C0E0D8CF8091690413
:101B800082FD06C190916A0490FDBFCF84FFCECF45
:101B9000F2CF8091690483FDDDCFC8CF80916904C5
:101BA00083FDF9C090916A0491FFF0CFC4EED0E0BC
:101BB000BDCF8091690485FFB9CFC9E2D0E0B6CF2F
:101BC0008091690485FFB2CFC5E3D0E0AFCF8091AB
:101BD000690486FFABCFCAE2D0E0A8CF8091690448
:101BE00086FFA4CFC1E3D0E0A1CFCF3BD10518F64B
:101BF000C85AD0E0CC0FDD1FC35ADE4F0990D88100
:101C0000C02DD46493CFC11540E2D40758F4C11558
:101C100081E0D80708F08ACFC03FD10508F4ABCFE8
:101C2000D06584CFC11590E4D90708F4A4CFDF7044
:101C3000D06A7CCFC11525E5D20700F5C11534E582
:101C4000D30708F08AC0C11543E5D40708F071C076
:101C5000C11582E5D80708F467C0CE0183709927C3
:101C600021E030E002C0220F331F8A95E2F7C695CB
:101C7000C69580E2C89FE001112452C0C11599E5C4
:101C8000D907A8F4C11528E5D20708F06BC0C11523
:101C900036E5D30708F06FCF8C2F0E94030DC82FB5
:101CA000D0E0DC2FCC27CC27DF71D0623FCFC1152D
:101CB0004AE5D40708F45BC0CE01905681159042E6
:101CC00008F059CF8D2F8F710E94030D90E0982F4F
:101CD000882788279F719C012C2BE901E6CFC55AE4
:101CE000D0E0C65ADE4FC881D0E0D0641FCFCE010D
:101CF000E4E096958795EA95E1F783702C2F269579
:101D00002695237040E2249F90011124382B8C2FBC
:101D10008370C1E0D0E002C0CC0FDD1F8A95E2F7EE
:101D2000C22BD32BDC6802CFDC2FCC27C16FD06A4B
:101D3000FDCECE018370992721E030E002C0220F52
:101D4000331F8A95E2F7C695C69590E2C99FE001D8
:101D50001124C22BD32BDA68E9CEDC2FCC27C46F39
:101D6000D06AE4CEDC2FCC27C06FD06ADFCE8C2FB8
:101D70008F700E94030D34E0D695C7953A95E1F730
:101D8000CF709C2FEC01D069D1CEC9E3D0E0CECE8C
:101D9000C2EED0E0CBCEC6EED0E0C8CE0C94E80ABE
:101DA00080919E02882331F010929E021092670269
:101DB000109266020895809590916F0498239093F5
:101DC0006F0408951092450210924402109243024B
:101DD00008958091420281111092420208958091EB
:101DE000410290911002981301C008958F5F87708F
:101DF000FACF9E3F49F1990F990F990FE92FE80FFC
:101E00009E2F9770E695E695E69583E0E89FF001B2
:101E10001124EA51FE4F50E040E080E0219130E093
:101E2000092E02C0369527950A94E2F721703327D0
:101E3000042E01C0220F0A94EAF7822B4F5F5F4FF6
:101E40004330510559F7089580E008959E3F69F1A8
:101E5000990F990F990FE92FE80F8E2F877041E0A6
:101E600001C0440F8A95EAF7E695E695E69583E08A
:101E7000E89FF0011124EA51FE4F30E020E070E0CD
:101E80005191DF011197CB01022E02C096958795E3
:101E90000A94E2F7817081958527842385278C93A6
:101EA0002F5F3F4F2330310559F70895982F9295B2
:101EB0009F7011F0892F94E0282F2695269511F018
:101EC0009E5F822F869509F09F5F892F08959C0160
:101ED0003A9521153F4150F5FC01EE27F170BC0108
:101EE00066277270AC01442754709C012227387019
:101EF00094FF0EC080E1EF2B09F480E0672B09F01E
:101F00008062452B09F08064232B89F08068089556
:101F100081E0EF2B09F480E0672B09F08260452B0C
:101F200009F08460232B19F08860089580E00895FB
:101F3000CF92DF92EF92FF920F931F93CF93DF9395
:101F40006C017B0164E670E088E70E94E232EC01FC
:101F500097FD12C010E000E0F601E00FF11F849140
:101F600064E670E00E945C33EC01892B29F40F5F7A
:101F70001F4F0E151F0581F70E94DF33CE01DF9141
:101F8000CF911F910F91FF90EF90DF90CF90089528
:101F900080915C0490915D04911103C091E08927C8
:101FA0000895882369F062E070E084E191E10E9485
:101FB000980F892B19F080915C04089510925C04AD
:101FC00080915C04EBCFCF93C0915C0480915D0461
:101FD0008823D1F00E94E80A605A75418F4F9F4FC5
:101FE000609358047093590480935A0490935B044F
:101FF000C11108C062E070E082E191E10E94980F97
:10200000892B29F0C0915C048C2FCF91089581E039
:1020100080935C04F7CF80936B0470936D0460939E
:102020006C0480919D048430F9F48093E9008FEF73
:102030009091E800815095FD06C095ED9A95F1F7D5
:1020400000008111F5CF8091E80085FF0DC050E0C0
:1020500040E063E070E08BE694E00E9482098091AA
:10206000E8008E778093E8000895BC0184E00C942A
:102070000B10BC0183E00C940B109C0184E0809356
:10208000E9009FEF8091E800915085FD06C085ED45
:102090008A95F1F700009111F5CF8091E80085FF56
:1020A0000CC050E040E066E070E0C9010E94820987
:1020B0008091E8008E778093E8000895CF93DF93B6
:1020C000EC01809151018823B1F18091690487FF6F
:1020D00032C060E284E08093E9008FEF9091E800E5
:1020E000815095FD06C095ED9A95F1F7000081119C
:1020F000F5CF8091E80085FF1BC08091510170E011
:1021000050E040E0811104C050E040E068E070E041
:10211000CE010E9482098091E8008E778093E800CA
:1021200080E2FE01A2E7B4E001900D928A95E1F70A
:10213000DF91CF91089568E081E0CDCF81E0809379
:10214000E00080E28093D8001092C9008FE19EE405
:102150000197F1F700C0000087E090EBDC0180936D
:10216000A2069093A306A093A406B093A50688E1C7
:102170009CE00FB6F894A895809360000FBE9093F2
:102180006000FFCF60914D018091440480FF20C02A
:1021900080914C0143E0849FC00111248B5E9C4FD1
:1021A000539A2BB1277F3BB138605FB7F894FC019D
:1021B000649FE00DF11D1124BF0168177907D1F468
:1021C0005FBF8FE594E00197F1F700C0000008952C
:1021D00080914E0190914F0123E0829FF0011124E4
:1021E000EB5EFC4F8917A0F61182108212828F5F7E
:1021F0003396F8CFFC014191CF01E8E03BB90000F4
:1022000000C047FF2BB9440F000000C000C000C051
:102210002BB900C0EA9591F7D0CFE4E4F4E08081D7
:102220008E7F8083E2E1F3E08281816082832FEF01
:1022300080E792E0215080409040E1F700C000002C
:102240000C94C2109F92AF92BF92CF92DF92EF9206
:10225000FF920F931F93CF93DF937C015B016A0181
:102260008091A70201E010E08A3010F40AE010E04B
:10227000C1E0D0E0F894B501C701F6010995982EA8
:102280000E94EA0C911004C021960C171D076CF4F3
:10229000892DDF91CF911F910F91FF90EF90DF90EB
:1022A000CF90BF90AF909F900895CC9F9001CD9F0D
:1022B000300D300D112490E080E045E34A95F1F7B0
:1022C0000000019682179307C1F7D4CF8091720264
:1022D000811118C088EC9091E30097FD10C0EFE3E6
:1022E000FCE93197F1F700C000008150A1F782E0CE
:1022F000809372020E94320910929D0403C081E013
:102300008093720281E090917202913011F080E02E
:10231000089508950E946611882351F0E0916004A9
:10232000F0916104309721F00190F081E02D099443
:1023300080E008951F93CF93DF93162F8A3031F4F6
:1023400081E0DF91CF911F910C943F128D3011F4F9
:1023500080E0F7CFC0919F04D091A00496E0FE01E9
:10236000A0E5B4E001900D929A95E1F7803EA8F1C6
:1023700086E0FE0111928A95E9F7C0919F04D09101
:10238000A004111136C046E050E0BE0180E594E0A3
:102390000E94F1359E01215A3440892BA9F52A5F0C
:1023A0003F4F4091A106642F70E0C9010E94A735FC
:1023B000481B463010F4240F311D211572E03707F9
:1023C00010F030E020E02F553B4F3093A0042093D5
:1023D0009F04DF91CF911F910895F6E08F9FB00188
:1023E00011246E52744F46E050E0CE010E94E83551
:1023F000C4CF9E012A5F3F4FFE012E173F0719F2FF
:10240000808180958193F9CFC90145E096958795A4
:102410004A95E1F741E050E0BA0102C0660F771F2C
:102420008A95E2F7CB016091560470915704862B90
:10243000972BB9016B5F7F4FE5E076956795EA953D
:10244000E1F702C0440F551F6A95E2F7842B952BE4
:102450009093570480935604A2CF1F93CF93DF939A
:10246000EC01162FFE018491811104C0DF91CF9100
:102470001F910895612F0E949A112196F3CFCF9357
:10248000382FE0919F04F091A004E15AF44020918C
:10249000A106622F70E0CF010E94A735281B822F72
:1024A000332369F066E00E94BB35C82FC15010F499
:1024B000CF91089560E080E20E949A11F7CF9F01CA
:1024C000280F311D2115324018F080E0F0E0E0E0E7
:1024D0008E0F9F2F911D8F559B4F9093A00480933B
:1024E0009F04E6CFCF93DF93C7E4D3E060E0CE0153
:1024F0000E9422362196C11584E0D807B9F7DF91F2
:10250000CF9108950F931F93CF93DF938901843068
:1025100068F5623058F5423048F501152CE5120790
:1025200031F420914A0430914B04232BF9F028E038
:10253000829FC001112424E0629FB0011124860F04
:10254000971FC42FD0E0CC0FDD1FC80FD91FC95D66
:10255000DC4F612FCE010E942236602FCE01019602
:10256000DF91CF911F910F910C942236DF91CF9183
:102570001F910F9108950F931F93CF93DF938901BC
:10258000843048F56C3038F5483028F521153C4545
:1025900031F420914A0430914B04232BE1F090E177
:1025A000699FE001112450E0440F551FC40FD51F4F
:1025B00090EC899FC00DD11D1124612FCE0187960B
:1025C0000E942236602FCE018896DF91CF911F9115
:1025D0000F910C942236DF91CF911F910F910895A6
:1025E0006F927F928F929F92AF92BF92CF92DF9223
:1025F000EF92FF920F931F93CF93DF93A0904A0423
:10260000B0904B0481E090E090934B0480934A0497
:1026100082EBC82E88E0D82E92EDE92E98E0F92EB4
:10262000C0E0470110E014C0F301259134914D2F13
:10263000612F8C2F0E94BB1282E0680E711CDF5F3D
:10264000D83091F780E1880E911C1F5F1C3019F083
:102650003401D0E0E9CF8601D0E0F8012591349132
:1026600040E06D2F8C2F0E948212F8013296259146
:10267000349141E06D2F8C2F0E9482120C5F1F4F0E
:10268000D130E9F488E0C80ED11CCF5F80ECE80EB1
:10269000F11CC43009F0C5CFB0924B04A0924A049B
:1026A000DF91CF911F910F91FF90EF90DF90CF902E
:1026B000BF90AF909F908F907F906F900895D1E0E2
:1026C000CCCFCF93C82F6FEF81116FEA83E290E0F8
:1026D0000E9422366FEFC1116BEA84E290E00E9403
:1026E00022366FEFC1116EE285E290E0CF910C943B
:1026F000223680E00E94611360E086E290E00E9452
:1027000022360E94F0120E94721281E00C94611332
:102710000F931F93CF93DF93843038F5623028F501
:1027200028E0829FC001112434E0639FB00111248E
:10273000860F971FC42FD0E0CC0FDD1FC80FD91F05
:10274000C95DDC4FCE010E940E36082F10E0102F1D
:102750000027CE0101960E940E369801282BC90150
:10276000DF91CF911F910F91089590E080E0F8CF15
:102770000F931F93CF93DF93843030F56C3020F5A7
:10278000483010F520E1629F8001112450E0440F91
:10279000551F040F151F30EC839F000D111D1124D0
:1027A000C80187960E940E36C82FD0E0DC2FCC27B8
:1027B000C80188960E940E369E01282BC901DF9120
:1027C000CF911F910F91089590E080E0F8CF462FB0
:1027D00020914E0430914F04232B91F47E3F39F425
:1027E0006E3F71F480914C0490914D0408958430B3
:1027F00038F47C3028F4683018F4672F0C94B81340
:1028000090E080E00895CF92DF92FF920F931F93A4
:10281000CF93DF936C0100919E0480914904082BB3
:10282000C7E0D0E010E0FC2EC8010C2E02C0959548
:1028300087950A94E2F780FD0CC02197A0F7F12C50
:102840008F2DDF91CF911F910F91FF90DF90CF904F
:102850000895B6018C2F0E94E7130E94460D019740
:1028600061F3EECFCF93DF93EC010E940314BE011E
:102870000E94E713DF91CF910C94460DFC018081FB
:1028800091810E94321492959F70963091F058F485
:10289000925F9F70923058F4803F19F030F4883E78
:1028A00030F481E008959A5FF4CF843FD1F380E063
:1028B0000895883EB0F3813FD1F7F3CF83E290E0F3
:1028C0000E940E368F3A89F484E290E00E940E3620
:1028D0008B3A59F485E290E00E940E3691E08E32F8
:1028E00009F090E0892F8170089580E0FCCFCF92AD
:1028F000DF92EF92FF926B017C010E94A50BB70162
:10290000A60188E090E0FF90EF90DF90CF900C94CC
:1029100034368F929F92AF92BF92CF92DF92EF9216
:10292000FF920F931F93CF93DF93182FC62FD42FAF
:10293000822E0091440400FFD8C0E02FE695F0E01D
:10294000ED54FE4F808180931203802F8E7F823062
:10295000E9F4E42F493708F0E8E7F0E0EE54F84FE7
:10296000C11144C02491F22FE22F00FF0FC08091CB
:102970004E0190914F0133E0839FD0011124AB5E53
:10298000BC4F891708F4A7C00E94C210809145046B
:10299000811308C0809146048C1304C080914704C1
:1029A0008D1729F080911403826080931403109393
:1029B0004504C0934604D0934704882009F495C089
:1029C00060914404709145048091460490914704BD
:1029D000DF91CF911F910F91FF90EF90DF90CF90FB
:1029E000BF90AF909F908F900C947714EC2EF12CA9
:1029F000E4919E2ECE2ED12C26E0129FC0011124F0
:102A00002FEF30E0B9010E94A735812F90E0880FA9
:102A1000991FF5E5F69FA001F79F500D1124841B27
:102A2000950BB82EBB0CB80EA9014E195F094C9D31
:102A3000C0014D9D900D5C9D900D1124F92FCB9DF3
:102A4000A0011124452F5527D901A41BB50BAC9D1E
:102A5000A001AD9D500DBC9D500D1124D901AB19A5
:102A6000B1095D01AE9CD001AF9CB00DBE9CB00D14
:102A70001124AB2FBB272A1B3B0B2C9DD0012D9D76
:102A8000B00D3C9DB00D11242B2F62307105A1F0CB
:102A900050F46115710509F468CF6130710581F05A
:102AA000292FF52F62CF6430710569F080F0663010
:102AB000710509F45ACFF4CF2E2FE92FFB2F55CFF4
:102AC0002E2FE52F52CF292FFE2FEB2F4ECFE92FA0
:102AD000F92D252F4ACF1196EC9311972C9312962E
:102AE000FC9312978F5F13964CCFDF91CF911F917C
:102AF0000F91FF90EF90DF90CF90BF90AF909F909D
:102B00008F900895E4E4F4E0438121E1421B08F44E
:102B100040E021E0628181810C948914E4E4F4E0D6
:102B2000438121E1420F08F44FEF21E0628181816E
:102B30000C948914E4E4F4E0628121E1621B08F45E
:102B400060E021E0438181810C948914E4E4F4E0A5
:102B5000628121E1620F08F46FEF21E043818181FE
:102B60000C948914E4E4F4E0818121E043816281E2
:102B700088500C948914E4E4F4E0818121E04381DD
:102B80006281885F0C94891480914804882319F02D
:102B90008150809348046091440470914504809171
:102BA0004604909147040C94771480914804833034
:102BB00018F48F5F80934804609144047091450439
:102BC00080914604909147040C94771480914404BA
:102BD00080FF1EC081708260809344048091140342
:102BE000816080931403662351F0609144047091D6
:102BF000450480914604909147040E94771420E098
:102C00004091470460914604809145040C948914D6
:102C10000895809144048695815009F481E061E033
:102C20000C94E61561E081E00C94E615E4E4F4E030
:102C300083E0808311828FEF828388E7838314820D
:102C4000A2E1B3E012968C911297836012968C9356
:102C500060817181828193810C94771469EE7EEF9B
:102C600090E080E00E94403660E082E090E00E94C8
:102C7000223660E083E090E00E9422361092490400
:102C800060E084E090E00E94223660E082E290E022
:102C90000E94223660E085E090E00E94223660E0EB
:102CA00086E090E00E9422366FEF87E090E00E947D
:102CB000223640E050E0BA0188E090E00E943436CD
:102CC00060E08DE090E00E94223640E050E0BA01E2
:102CD00088E190E00E94343660E087E190E00E9455
:102CE000223640E050E0BA018CE190E00E94343698
:102CF00070E060E080E290E00E94403640E050E00A
:102D0000BA0188E190E00E94343680E00E946113AD
:102D10000E94791340E050E0BA018FE090E00E94F9
:102D2000343640E050E0BA0183E190E00C94343650
:102D3000DF92EF92FF920F931F93CF93DF9379016E
:102D4000C82F880FDD0B41155105A9F0FE0193E056
:102D5000EE0FFF1F9A95E1F7E050FF4F81819281BE
:102D60008D589D4F208130E04217530708F49A0197
:102D7000A9010E94FE35CE010E943135D82E88234C
:102D8000D1F001151105B9F083E0CC0FDD1F8A9554
:102D9000E1F7FE01E050FF4F438150E004171507B3
:102DA00008F4A801C050DF4F6C817D816D587D4FC4
:102DB000C7010E94FE358D2DDF91CF911F910F919C
:102DC000FF90EF90DF9008950F931F93CF93DF93C1
:102DD000CDB7DEB728970FB6F894DEBF0FBECDBFD4
:102DE00085E0E4E4F4E0DE01119601900D928A950D
:102DF000E1F78091120390911303A09114038E8345
:102E00009F83A88728854091A3025091A4026091D6
:102E1000A5027091A6023FB7F89480916504909145
:102E20006604A0916704B09168043FBF841B950BB2
:102E3000A60BB70B84369105A105B10510F422232A
:102E4000C1F010E000E030E020E048E050E0BE01DA
:102E50006F5F7F4F86E00E949816882369F00E947A
:102E6000E80A6093A3027093A4028093A502909352
:102E7000A6021092140381E028960FB6F894DEBFE4
:102E80000FBECDBFDF91CF911F910F9108950F938A
:102E90001F93CF93DF9300D00F92CDB7DEB7809111
:102EA0009F029091A002A091A102B091A2022FB71F
:102EB000F8944091650450916604609167047091A4
:102EC00068042FBF481B590B6A0B7B0B81E044360B
:102ED00051056105710508F480E090916F049983B4
:102EE000443651056105710520F4209180022913B3
:102EF00081E090919D029A83811106C081E020912A
:102F00008102291301C080E090919E029B83811170
:102F100005C08091820211E08917C9F010E000E03D
:102F200030E020E043E050E0BE016F5F7F4F85E07E
:102F30000E949816182F882351F00E94E80A609387
:102F40009F027093A0028093A1029093A202812F0E
:102F50000F900F900F90DF91CF911F910F910895D7
:102F60000F931F93CF93DF9300D000D0CDB7DEB780
:102F70004091990250919A0260919B0270919C023B
:102F80002FB7F8948091650490916604A09167042E
:102F9000B09168042FBF841B950BA60BB70B11E0F3
:102FA00084369105A105B10538F10E946611882388
:102FB00069F10E94E80A6E5F7F4F8F4F9F4F6983D0
:102FC0007A838B839C8310E000E030E020E044E0D3
:102FD00050E0BE016F5F7F4F84E00E949816182F6B
:102FE000882351F00E94E80A6093990270939A0234
:102FF00080939B0290939C02812F0F900F900F90D3
:103000000F90DF91CF911F910F9108950E94E80AD0
:103010000091A8021091A9022091AA023091AB025E
:10302000600F711F821F931FC6CF7F928F929F9256
:10303000AF92BF92CF92DF92EF92FF920F931F93C6
:10304000CF93DF930F92CDB7DEB7762E4A015901A9
:10305000680101E010E09E012F5F3F4F50E040E02B
:1030600070E060E00E949816182F882309F44BC086
:10307000F40140815181628173812FB7F89480916E
:10308000650490916604A0916704B09168042FBF15
:10309000841B950BA60BB70B84369105A105B105D2
:1030A00038F4B701C6010E948A0B9981891759F13A
:1030B0008701950150E040E070E060E0872D0E94BC
:1030C0009816B82EB701C6010E948A0B11E09981AB
:1030D000981310E01B2139F00E94E80AF401608384
:1030E000718382839383812F0F90DF91CF911F9102
:1030F0000F91FF90EF90DF90CF90BF90AF909F9097
:103100008F907F900895A701B601C5010E94FE35FA
:10311000EACFCF92DF92EF92FF920F931F93CF935C
:10312000DF9300D000D000D0CDB7DEB76B0186E0D2
:10313000E82EF12C04E712E09E012F5F3F4F41E99A
:1031400052E061E080E00E941518882349F096E083
:10315000FE013196ABE8B2E001900D929A95E1F74D
:1031600096E0EBE8F2E0D60101900D929A95E1F736
:1031700026960FB6F894DEBF0FBECDBFDF91CF917C
:103180001F910F91FF90EF90DF90CF90089590E006
:1031900080E00E941C36893E9E4F11F40C945E1410
:1031A00080E008951F920F920FB60F9211242F9373
:1031B0003F934F935F936F937F938F939F93AF93BF
:1031C000BF93EF93FF938091E10082FF09C080914C
:1031D000E20082FF05C08091E1008B7F8093E100D7
:1031E0008091DA0080FF24C08091D80080FF20C049
:1031F0008091DA008E7F8093DA008091D90080FF81
:103200009DC080E189BD82E189BD09B400FEFDCF8A
:1032100081E080939D0480916E04811109C00E9419
:1032200032090E94250A8091E20084608093E200C6
:103230008091E10080FF17C08091E20080FF13C001
:103240008091E2008E7F8093E2008091E2008061B5
:103250008093E2008091D80080628093D80019BCEE
:1032600085E080939D048091E10084FF2BC08091D4
:10327000E20084FF27C080E189BD82E189BD89B574
:10328000982F917080FFFBCF8091D8008F7D809325
:10329000D8008091E1008F7E8093E1008091E20070
:1032A0008F7E8093E2008091E20081608093E20053
:1032B00080919404882309F447C084E080939D049E
:1032C00080919D048091E10083FF27C08091E200FE
:1032D00083FF23C08091E100877F8093E10082E03B
:1032E00080939D04109294048091E1008E7F8093DE
:1032F000E1008091E2008E7F8093E2008091E20005
:1033000080618093E20042E060E080E00E94F30987
:103310008091F00088608093F000FF91EF91BF9161
:10332000AF919F918F917F916F915F914F913F915D
:103330002F910F900FBE0F901F90189519BC1092EF
:103340009D0410926E0474CF8091E30087FD93E09A
:1033500090939D04B5CF78941F921FB61F921124AD
:103360008F939F93AF93BF93809165049091660470
:10337000A0916704B09168040196A11DB11D8093CE
:10338000650490936604A0936704B0936804BF91AA
:10339000AF919F918F911F901FBE1F9018959C0118
:1033A0004FB7F8948091650490916604A0916704EA
:1033B000B09168044FBF821B930B08952FB7F89408
:1033C0008091650490916604A0916704B0916804AF
:1033D0002FBF08950E94DE199C0190910E038091E9
:1033E0000F03982B21F030930B0320930A03909145
:1033F000100380911103982B21F03093090320933F
:103400000803E0916004F0916104309749F082E094
:1034100080930C030480F581E02D8CE093E0099407
:103420000895CF93C82F80916A0482FD0CC08091CB
:103430009E028C1741F00E94DE19909367028093E0
:103440006602C0939E02CF9108959F92AF92BF9261
:10345000CF92DF92EF92FF920F931F93CF93DF9360
:10346000CDB7DEB762970FB6F894DEBF0FBECDBF03
:103470008E010F5F1F4F8CE0D8011D928A95E9F7EE
:103480008DE8C82E81E0D82EF12CE12CAA24A3943B
:10349000B12CF60181916F018F3F09F444C0F8947B
:1034A000E82FE295EF70F0E021A18F70A50102C036
:1034B000440F551F8A95E2F7CA01922F982B91A3CA
:1034C00092A18095892382A30E94EA0C00C0E3E9BF
:1034D000F1E0912C31E021912F3F09F479C0A22F26
:1034E000A295AF70B0E090968C9190E02F7002C0E2
:1034F000959587952A95E2F780FD6AC0832F982AD3
:10350000330F51E0EB39F50731F7F6013197808140
:103510008F3F11F00E94EC0C80EA8A95F1F7F801D8
:10352000EE0DFF1D90829FEFE91AF90AA6E0EA1658
:10353000F10409F0AECF4CE050E0B8018CEA92E023
:103540000E94F1357C01892B41F08CE0F801ACEA56
:10355000B2E001900D928A95E1F71091B902E11461
:10356000F104C1F181E080936A020E94DE19909318
:1035700069028093680280916802909169020E94BA
:10358000CF19059778F0ACEAB2E0E12FF0E0E75010
:10359000FD4F82EB92E02D9121938A179B07D9F77B
:1035A00010926A0281E090E0EF28C1F062960FB6B7
:1035B000F894DEBF0FBECDBFDF91CF911F910F9169
:1035C000FF90EF90DF90CF90BF90AF909F900895C5
:1035D00080E095CF80916A028111CDCF0E94661163
:1035E000D82EE091B902AE01435F5F4F7A01882384
:1035F00009F47EC086E0DA011D928A95E9F70E2F64
:1036000010E007501D4F8091A7028A30E8F549E885
:1036100058E1B701C8010E942211882309F444C06F
:1036200040EA59E2B701C8010E9422118823E1F162
:1036300040EB57E1B701C8010E9422118823A1F194
:1036400047E457E1B701C8010E942211882361F1C4
:1036500044EE56E1B701C8010E942211882321F1EE
:103660001092A7028091B80290E046E050E0B701C6
:1036700087509D4F0E94F13521E020937102892BE4
:1036800051F5D12C8D2D92CF80916B0290916C02CF
:103690000E94CF19843F914008F0B9CF8091710208
:1036A000811112C080E082CF8091A7028F3F29F064
:1036B0008F5F8093A7028A30A8F20E94DE19909350
:1036C0006C0280936B02EACF86E0F70111928A9533
:1036D000E9F710927102A091B802B0E0A750BD4F77
:1036E00086E0FE013D9601900D928A95E1F7CACFE2
:1036F000F0E0E750FD4FF89486E0A4E7B2E00190D7
:103700000D928A95E1F766E070E084E792E00E940E
:103710008A0B809373020E94EA0CF894E091CE0227
:10372000F0E0E553FD4F80818D8780937B0261E05F
:1037300070E0C7010E948A0B80937A020E94EA0C13
:10374000F894C0907C02D0907D02E0907E02F090D0
:103750007F0280916D0290916E02A0916F02B091F4
:103760007002C816D906EA06FB06D1F0C0926D02B7
:10377000D0926E02E0926F02F09270020E94661187
:1037800081110EC00E94E80AC61AD70AE80AF90A8F
:10379000C092A802D092A902E092AA02F092AB02D3
:1037A0000E94EA0CF8948091800280936F048091CB
:1037B000810280939D02809182020E94111A0E94D0
:1037C000EA0CF89480918A028823F1F080FF0DC002
:1037D0008091830280FF1BC090914404916090937C
:1037E000440460E086950E94E61580918A0281FF7C
:1037F00009C020E040918602609185028091840298
:103800000E94891410928A020E94EA0C4BCF0E94F7
:103810000D11EBCF80916F0490919D02892B8093C5
:10382000C60180919E02882329F10E94DE19209111
:10383000660230916702821B930B8838934110F027
:103840000E94D00E8091C60190919E02892B809398
:10385000C601809151018823D9F18091690487FFC5
:1038600037C08EE1E8ECF1E090E0815098F59111DD
:103870000E94D00E40E250E066E472E086EC91E0F7
:103880000E94F135892B59F180E2E6ECF1E0A6E4E3
:10389000B2E001900D928A95E1F7E0916004F09119
:1038A00061043097E1F080915101882359F08091B3
:1038B000690487FF07C08091C6018093C70186E035
:1038C0008093C6010280F381E02D86EC91E009949B
:1038D00086E0C8CF2191222341F29F5FC6CF089591
:1038E00090E080E00E94340B90E080E00E941E0B8C
:1038F00010929D020E940A1C86E0ECE0F3E0DF01DA
:103900001D928A95E9F71092060310920503109212
:1039100007030C94EA1980939E040C94701C809108
:103920009E04982F9670963019F488600C948B1C26
:10393000877FFCCF21E030E001C0220F8A95EAF7B3
:10394000209580919E0482230C948B1C90914502BB
:103950008095892380934502282F277091F4282F82
:10396000082E000C330B9217130659F090916A043D
:1039700092FD07C08595859585950E949A1C0C94AB
:10398000E20E0895CF93C0916A04C2FB992790F983
:10399000981799F080FBC2F9C0936A04609169049A
:1039A00084E090E00E9422366C2F82E290E00E9438
:1039B000223682E0CF910C94A61CCF91089521E08D
:1039C00030E001C0220F8A95EAF780919E04822B95
:1039D0000C948B1C809349040C94701C80915101B1
:1039E000E8ECF1E0882359F08091690487FF07C073
:1039F0008EE1DF011D928A95E9F70C94701C86E038
:103A0000F8CF1F93CF93DF93CDB7DEB7AA970FB64A
:103A1000F894DEBF0FBECDBF85E994E02091F100A0
:103A2000DC012D93CD01B4E08D399B07B9F780916E
:103A30009604833009F472C0B8F4813009F449C0A7
:103A4000823009F4B5C08091E80083FF98C280916C
:103A50009504909196049A3008F091C2E92FF0E015
:103A6000E85AF94C0C94DB358A3009F490C08B305D
:103A700009F471C0893039F780919504813219F7C2
:103A80008091990490919A04009711F00297D9F6C9
:103A90008091E800877F8093E8008091E80082FFB2
:103AA00038C09091F3008091F200029731F4809138
:103AB000F100813011F0863021F48091F100809383
:103AC00071048091E8008B778093E8000E94D4090C
:103AD000BACF80919504813A09F0B5CF8091E80082
:103AE000877F8093E8008091990490919A04892BB4
:103AF00061F460E282E794E070E00E94860A8091BF
:103B0000E8008B778093E8009ECF60E090E080E053
:103B1000F3CF80919D048111C0CF95CF8091950402
:103B2000813A09F090CF8091990490919A04892B61
:103B300009F089CF8091E800877F8093E800809129
:103B4000E80080FFFCCF809151018093F1008091CB
:103B5000E8008E77B9CF80919504813209F073CF58
:103B60008091990490919A04892B09F06CCF8091EF
:103B7000E800877F8093E8000E94D4098091970431
:103B80008093510110926F040E94EE1C5CCF8091D3
:103B90009504813209F057CF8091E800877F8093A8
:103BA000E8000E94D40980919804809370044BCF60
:103BB00080919504813A09F046CF8091E800877F93
:103BC0008093E8008091E80080FFFCCF8091700432
:103BD000BCCF803899F0823809F0D1C18091990426
:103BE0008F70873008F0CBC18093E9008091EB00A3
:103BF00085FB882780F91092E90006C08091920425
:103C000090919304911182609091E800977F909336
:103C1000E8008093F1001092F1008091E8008E7727
:103C2000AAC1882309F498C1823009F0A8C1809103
:103C3000970481119BC1809199048F702FEF280FF9
:103C4000263008F09CC18093E9002091EB0020FF12
:103C50008DC1933031F48091EB0080628093EB0052
:103C600085C19091EB0090619093EB0021E030E0F2
:103C700001C0220F8A95EAF72093EA001092EA0029
:103C80008091EB008860EACF811179C1109197048F
:103C90001F778091E3008078812B8093E3008091EF
:103CA000E800877F8093E8000E94D4098091E800B3
:103CB00080FFFCCF8091E30080688093E30082E086
:103CC000111183E080939D045AC18058823008F01E
:103CD00056C120919704309198042C3DE3E03E07B3
:103CE000A1F583E08A838AE289834FB7F894DE01E5
:103CF000139620E03EE051E2E32FF0E050935700AE
:103D0000E49120FF03C0E295EF703F5FEF708E2FCC
:103D100090E0EA30C0F0C7968D939D932F5F2431D9
:103D200059F74FBF8091E800877F8093E8006AE2EF
:103D300070E0CE0101960E94860A8091E8008B77A0
:103D40008093E8001CC1C096E7CF809199049091C0
:103D50009A04432F55274330510509F44AC078F59A
:103D60004130510509F485C08BE590E0E6E1F1E1D1
:103D70004230510509F003C12091E800277F2093CC
:103D8000E80020919B0430919C048217930708F46B
:103D90009C0140E02115310509F070C041116EC051
:103DA0008091E80082FDC9CF80919D04882329F28B
:103DB000853019F28091E80083FFF2CFBECF413207
:103DC000510509F447C04232510509F0D8C083308B
:103DD000910508F0D4C0FC01EE0FFF1FE854FE4F20
:103DE0000190F081E02D8B549E4FDC018C9190E08E
:103DF0001DC0332721303105E9F02115310579F057
:103E000022303105F9F02330310509F0B8C0E3E87C
:103E1000F1E1E4918E2F90E0E3E8F1E107C0E7ECF7
:103E2000F1E1E4918E2F90E0E7ECF1E1009709F4E5
:103E3000A6C0A2CFE9EBF1E1E4918E2F90E0E9EB8F
:103E4000F1E1F4CFE1EAF1E1E4918E2F90E0E1EAD3
:103E5000F1E1ECCF8330910508F091C0880F991FF4
:103E6000FC01E254FE4F0190F081E02D89E090E0EA
:103E700083CF82E190E0E1E7F1E17ECF80919D0484
:103E8000882309F45ACF853009F457CF8091E80090
:103E900083FD53CF8091E80082FD82CF8091E800BE
:103EA00080FF78CF9091F3008091F20021153105C9
:103EB00019F08830910550F041E0089709F040E092
:103EC0008091E8008E778093E80064CF449140931E
:103ED000F1003196215031090196E8CF803809F080
:103EE0004EC08091E800877F8093E8008091940421
:103EF0008093F10092CE811142C01091970412304C
:103F0000F0F58091E800877F8093E8001093940497
:103F10000E94D409112311F084E005C08091E300D0
:103F200087FDFACF81E080939D0442E061EC81E05F
:103F30000E94F30942E261EC84E00E94F30942E24C
:103F400061EC82E00E94F30942E260EC83E00E94AF
:103F5000F30980919D0413C080919704813079F416
:103F600081E0933009F080E0809393041092E9009F
:103F70008091E800877F8093E8000E94D4098091B7
:103F8000E80083FF0AC08091E800877F8093E80003
:103F90008091EB0080628093EB00AA960FB6F894B4
:103FA000DEBF0FBECDBFDF91CF911F9108951F924D
:103FB0000F920FB60F9211242F933F934F935F935D
:103FC0006F937F938F939F93AF93BF93CF93DF9321
:103FD000EF93FF93D091E900DF708091EC00C82F40
:103FE000C17080FDC0E81092E9008091F000877FE9
:103FF0008093F00078940E94011D1092E900809156
:10400000F00088608093F000CD2BCF70C093E90062
:10401000FF91EF91DF91CF91BF91AF919F918F91E0
:104020007F916F915F914F913F912F910F900FBEB4
:104030000F901F901895882341F0809590919D02D4
:10404000892380939D020C940A1C0895882339F0DB
:1040500090919D02982B90939D020C940A1C0895B8
:10406000882321F00E94DB0E0C940A1C08958823FB
:1040700039F090916F04982B90936F040C940A1C64
:104080000895882379F19CEF980F913A38F4682FBE
:1040900086EC91E00E94F40A0C940A1C90E2980FBE
:1040A000983050F4877091E001C0990F8A95EAF733
:1040B000892F0E94DB0EF0CF9BE5980F933020F400
:1040C00090E080E00C94340B98E5980F973120F441
:1040D00090E080E00C941E0B803F20F00E94BB0B10
:1040E0000C94EA190895CF93C82F882309F49CC033
:1040F0008CEF8C0F813A08F064C0809151018823C5
:10410000D1F18091690487FF36C0EC2FE695E695E2
:10411000E695F0E0EA53FE4F828190E04C2F477025
:1041200021E030E002C0220F331F4A95E2F78223DC
:104130009323892B61F06C2F86EC91E00E94F40AA6
:104140000E940A1C22C08091690487FF22C0EC2FC4
:10415000E695E695E695F0E0EA53FE4FC77021E05C
:1041600030E001C0220FCA95EAF78281822B828358
:10417000CF910C940A1CE8ECF1E08EEC91E02191D7
:10418000C217C9F28E179F07D1F780915101811193
:10419000DACFA8ECB1E0EFEF80E09D91C91741F3D1
:1041A000EF3F19F4911101C0E82F8F5F8630A9F716
:1041B000EF3FF1F20E2E000CFF0BEA53FE4FC283CD
:1041C000D7CF80E28C0F883068F4C77021E030E0F0
:1041D00001C0220FCA95EAF780916F04822B809369
:1041E0006F04C6CFEBE5EC0FE33040F4F0E0E65AA5
:1041F000FE4F808190E0CF910C94340BE8E5EC0FFA
:10420000E73150F4F0E0EE0FFF1FE35AFE4F8081DC
:104210009181CF910C941E0BC03F30F08C2F0E94E7
:10422000800CCF910C94EA19CF9108951F93CF93EE
:10423000DF93182FEB010E947320209731F4812F18
:10424000DF91CF911F910C9441208FE99FE001975E
:10425000F1F700C000002197F0CFAF92BF92CF924C
:10426000DF92EF92FF920F931F93CF93DF93EC01B6
:104270008AE0A82E2881222309F49CC0213009F06D
:104280003FC099818A81913051F4229670E060E0BC
:10429000893311F460E570E00E94162105C0923068
:1042A00029F422960E9473202196E4CF933021F4C2
:1042B00022960E944120F8CF943011F02196F4CF3D
:1042C000229630E020E0AE014F5F5F4F8053990BA4
:1042D0008A30910550F02150310930F38FE99FE089
:1042E0000197F1F700C00000F6CFA29EB001A39E97
:1042F000700D11249C01260F371F8981EA01E3CF3D
:10430000E22FF0E0E650FE4FB490822F869586951E
:10431000869590E0FC01E651FE4FE4902770F12C69
:10432000022E02C0F594E7940A94E2F731E0E3220A
:10433000FF24FC01E652FE4FC490D12C022E02C095
:10434000D594C7940A94E2F731E0C322DD24FC013E
:10435000E653FE4F049110E002C0159507952A958B
:10436000E2F701701127E114F10419F081EE0E94C7
:104370007320C114D10419F086EE0E94732089E3E2
:1043800070E060E0B81202C060E570E08B2D0E9422
:104390001621CD2819F086EE0E944120EF2819F051
:1043A00081EE0E944120012B09F47ECF70E060E095
:1043B0008CE272CFDF91CF911F910F91FF90EF9020
:1043C000DF90CF90BF90AF90089590916A0492FDD6
:1043D00010C098E0899F90011124622B60934502E0
:1043E0000E94DF1C0E94DE199093440280934302D6
:1043F00008950C94DF1C8F929F92AF92BF92CF9240
:10440000DF92EF92FF920F931F93CF93DF9300D031
:1044100000D00F92CDB7DEB76C01FC01838194818F
:10442000892B31F08081918189238F3F09F006C467
:104430000F900F900F900F900F90DF91CF911F91E1
:104440000F91FF90EF90DF90CF90BF90AF909F9033
:104450008F9008950E940314182F682F89819A81E4
:104460000E94260F69817A81812F0E94E7138C01B7
:10447000F6018281882309F473C3C80182519F45E4
:10448000409708F05CC38FEF93E00E940E36025114
:1044900047E4E42E43E0F42E8823E9F080914502BE
:1044A000877031F2F6018281882311F280916A04CB
:1044B00082FDBECF82E00E94A61CBACFE114F4E0D8
:1044C000FF0661F3C7010E940E36811101C0015041
:1044D0002FEFE21AF20A0111F1CF19821A821B8220
:1044E0001C820FEF47013FEF831A930AC7010E9416
:1044F0000E3689831A82882389F2813009F047C0F9
:10450000570142E0A40EB11CC4010E940E36982E41
:104510008A83882319F2C5010E940E36182F8FEF67
:10452000890D833068F4570153E0A50EB11C1B833D
:10453000112321F0CE0101960E942D217501D2CFC9
:1045400084E09812FBCF570194E0A90EB11CC7017B
:1045500003960E940E36112309F4A0CF882309F494
:104560009DCF8150990B089F9001099F300D112418
:10457000E12FE150FF0BCF01820F931F0197F0F263
:10458000EFE9FFE03197F1F700C00000F7CFCE016F
:1045900001960E942D215401D1CF81E00E94DF1CA1
:1045A0000E948F1C7BCF81E00E949A1CF9CF82E091
:1045B000F5CF82E0F9CF4AE955E166EA75E1073CBB
:1045C0003CE5130709F45AC008F465C046EA55E112
:1045D0006AE975E153C00D3C5CE5150709F465C057
:1045E000A8F444EC55E165ED75E10B3CECE51E07E4
:1045F00009F444C04EE855E162E875E10C3C1C4505
:10460000E8F145ED55E164EC75E138C0063D2CE577
:10461000120708F443CF0D351D4509F43FCFC6C23C
:104620008091440480FF1EC08E7F8093440460917B
:1046300044047091450480914604909147040E947F
:104640007714809114038160809314034FEF50E737
:1046500082E0415050408040E1F700C000000E94DD
:10466000C2101CCF81608093440461E086950E9453
:10467000E61514CF49E056E162E176E10E94A00B15
:104680000DCF42E156E169E076E1F8CF42EB55E12A
:104690006BEB75E1F3CF4BEB55E162EB75E1EECFE0
:1046A00042E855E16EE875E1E9CF61E081E0DFCFF6
:1046B0000B359DE5190758F40115ECE51E07C9F007
:1046C0000E3D1C4509F072C20E942E16E7CE0B3536
:1046D0002DE51207E9F00C351D4509F067C2809100
:1046E0006A0482FB882780F991E089270E94C21C16
:1046F0005DC210926F040E94EE1C4FEF54E38CE0F9
:10470000415050408040E1F700C000000E949E10E0
:1047100080E0ECCFC8010E94F90EF82E56C2212F7E
:104720002F70F22E107F19F0F29490EFF922EE2004
:10473000B9F0FF2069F080E2800F883010F081101E
:1047400009C080916F04F82AF0926F040E940A1C3D
:10475000802F4AC080919D02F82AF0929D02F6CFE8
:10476000802F0E944120FF2009F440C0005E0830E5
:1047700010F0811004C08F2D0E94DB0E06C0F09453
:1047800080919D02F822F0929D020E940A1C2EC088
:10479000312F3F70F32E107F103219F0F29480EF1A
:1047A000F822882089F041E0841609F47DC0EE20CB
:1047B00009F486C0BB2009F45BC0F601858180FF47
:1047C000C7CF8F70858354C080916A0482FF35C043
:1047D000EE2069F1FF2039F080916F04F82AF09201
:1047E0006F040E940A1C80E00E947320292D28502B
:1047F000330B2430310510F40E948A11AA2009F4E9
:1048000017CE8091450280FD13CEF6011282859568
:10481000859585950E94DF1CC6010E94FB21809131
:1048200045028595859585950E949A1C01CE80E06C
:104830000E944120FF20D1F29ECFEE20E9F0B1107E
:1048400004C080919E028F2914C051E0B51206C0A9
:1048500080919E028F290E94111AC8CF85E0B8125C
:10486000F0CF0E94D00E80914202F812F0924202E4
:104870008F2D0E943720BACFB11006C00E94D00EF3
:104880008F2D0E943020B2CF91E0B91208C08091E4
:104890006F048F2109F4AACF0E94E90EEFCFE5E063
:1048A000BE1609F4A3CFEACFEE2029F0F5E0FB1500
:1048B00008F49CCFDDCF24E02B1508F497CFE0CF90
:1048C000BB20F1F2F9E38F1209C02FEF37EE43E07E
:1048D000215030404040E1F700C00000802F0E948E
:1048E000412084CF812F86958695837061F0813039
:1048F00009F07CCFC8019370E11002C090E080E025
:104900000E941E0B73CFC8019370E11002C090E0AB
:1049100080E00E94340B6ACF802FEE2029F00E94A5
:10492000800C0E94EA1962CF0E94BB0BFACF812F44
:10493000837089F5E1105ACF402F42954695477014
:10494000440F440F802F8F70042E01C0880F0A94EB
:10495000EAF7202F207104FF07C02FE030E001C0EC
:10496000220F4A95EAF72095169516951370123086
:1049700069F050F430914904113029F0822B8323DF
:104980000E94EA1C33CF832B822BFACF282B8091F5
:1049900049048227F5CF8695EE2011F0812F817092
:1049A000882309F423CF402F429546954770440F42
:1049B000440F802F8F70042E01C0880F0A94EAF7ED
:1049C000202F207104FF07C02FE030E001C0220F2C
:1049D0004A95EAF72095169516951370123069F0EE
:1049E00050F430919E04113029F0822B83230E94D1
:1049F0008B1CFCCE832B822BFACF282B80919E041C
:104A00008227F5CF1F70EE2029F0812F0E94DF1C36
:104A1000802F2FCF802F0E943020812F0E949A1C40
:104A2000E5CE802F52EF8516A9F1581570F090EF62
:104A30008916D1F0E1EF8E1691F0EE2009F46FC0E7
:104A4000B11086CE812F8F7129C0F3EF8F1649F1F7
:104A500024EF8212F2CF80916A0482FF2DC0812F51
:104A60008F71EE20D9F21AC0EE2079F034E03B15B8
:104A700008F4BCCE1F7181E090E001C0880F1A9548
:104A8000EAF790919E048927B2CF45E04B1508F4D0
:104A9000ADCEF0CF812F8F71E110C0CF0E94DF1C0F
:104AA000A5CE80E0EE2009F4A2CF1F7181E001C005
:104AB000880F1A95EAF79BCF80914202EE20D9F039
:104AC0000E94DB0E809145028770843041F40E9481
:104AD000E20E812F8F710E949A1CA12C87CE54E088
:104AE0005B15D8F31F71812F0E94DF1C63E0812FBB
:104AF0000E94E521F2CF90916F04982B90936F0460
:104B000084E08B1540F40E94E20E0E94E90E64E0FE
:104B1000812F8F71EDCF81E00E94A61CDECFBB20DC
:104B200059F0893309F0DACE9FEFE7EEF3E09150C8
:104B3000E040F040E1F7D0CE812F8F716FCF003190
:104B4000FFE51F0709F429CD01312FE5120709F40C
:104B50002ECD0A352DE5120709F0AACD81E0C6CD8C
:104B600000313FE5130709F41ECD01314FE514076D
:104B700009F41FCD80916F048272093C3CE5130754
:104B800009F48ECD08F027CD053C5CE5150709F446
:104B90007DCD08F010CD033CECE51E0709F46ACD8D
:104BA00008F06FCD023C1C4509F43ACDF601828134
:104BB00000811181882309F4ADCDC8010E9403143E
:104BC000F82E682FC8010E94260FB8018F2D0E9471
:104BD000E7130E94460D8C01882EF601E280B58015
:104BE000B2943FE0B322809145028770C1F0AE2CB1
:104BF000EE20B1F0812F807F803421F080E2800FA1
:104C0000883068F080916A0482FD09C082E00E94C9
:104C1000A61C809145028770AA24A3948111A12C1F
:104C2000912E92942FE09222FBE0F91508F4DECD4C
:104C3000E92DF0E0EE59F94C0C94DB3585E0DE010E
:104C4000119601900D928A95E1F7F60122818981F2
:104C50009A812111FFCB0E94F90E182F03CC1F93CC
:104C6000CF93DF9380910F02807FA9F480910C0293
:104C7000882389F080914102D091100260910A024C
:104C800070910B02A0910D02B0910E02C62FC723A6
:104C900016E0D81304C0DF91CF911F91089590E0E2
:104CA000109711F0CF3F19F401968770F2CF189F3B
:104CB0009001199F300D1124F901EF5EFD4F4181E4
:104CC0004713F2CF40814613EFCF42814111ECCF21
:104CD000438154814A1B5B0B483C510528F7809166
:104CE0000F028F70806180930F02F901EA5EFD4F21
:104CF00080818F70806180838AE092E00E94FB2136
:104D0000DF91CF911F910C94EF0EAF92BF92CF9293
:104D1000DF92EF92FF920F931F93CF93DF93CDB764
:104D2000DEB761970FB6F894DEBF0FBECDBF8C0122
:104D300085E0F801DE011D9601900D928A95E1F75C
:104D4000F801E2808AE0A82E82E0B82E60910D0280
:104D500070910E026115710509F432C190910A0239
:104D600040910B02892F84238F3F09F429C12081B0
:104D70003181C380D480F0900C02F601E61BF70B62
:104D8000FF2009F4E8C080910F02582F507FE83CC3
:104D9000F10508F0ABC0511177C0FE2C431321C0C0
:104DA00092131FC0E1101DC08F70806180930F02AD
:104DB000C5010E94FB2180910F02F80185838F2D90
:104DC00061960FB6F894DEBF0FBECDBFDF91CF91D5
:104DD0001F910F91FF90EF90DF90CF90BF90AF9019
:104DE0000895CD2829F0822F83238F3F09F003C136
:104DF00080E0F82FF170DF2E80FF3CC080914102EF
:104E00004091100256E0841315C02D873E878D8592
:104E10009E850E943214292F22952F702230F0F0A7
:104E2000243018F59F70F1F0F8019581907FD1F44E
:104E3000D12C1EC090E0589FF001599FF00D112415
:104E4000EF5EFD4F6181361306C06081261303C0FB
:104E50006281E6120FC001968770D5CF9F7011F066
:104E6000882331F3805E883018F3C8010E94FB214B
:104E7000FD2CA5CFEE2009F4A2CF80910F02816016
:104E800080930F02F12C9BCF431306C0921304C0F2
:104E9000F801EE2009F479C0C8010E943E1488236D
:104EA00009F1EE20F9F080910F02803270F020912C
:104EB0000A0230910B0238872F831986DB86CA8657
:104EC0008C87CE0107960E94FB2186E0F801AAE0BC
:104ED000B2E001900D928A95E1F70E942F26FF24FF
:104EE000F3946DCFC8010E94FB21F9CF51110AC084
:104EF0008AE092E00E94FB2186E0F50111928A95FA
:104F0000E9F7C0CF43130FC092130DC0E1100BC0DF
:104F1000F8018583C8010E94FB2186E0F50111920A
:104F20008A95E9F74CCFC8010E943E148823D1F23C
:104F3000EE20C1F280910F02803238F220910A02F5
:104F400030910B023A8329831B82DD82CC828E83CF
:104F5000CE010196B8CFE83CF105F8F6FE2CEE2024
:104F600009F243131FC092131DC080910F0280FDF0
:104F700010C0982F907F69F0F8018583903F31F041
:104F8000982F907F905F8F70892B8583C8010E9436
:104F9000FB2186E0F801AAE0B2E001900D928A952B
:104FA000E1F70DCFC8010E943E1481118ECF809190
:104FB0000F02816080930F02C8010E94FB21FFCE87
:104FC000EE2009F48FCFC8010E943E14F82E8823EA
:104FD00009F488CF86E0F801AAE0B2E001900D92D2
:104FE0008A95E1F780910A0290910B020E94321497
:104FF0000E942F26E4CE81E08E25FBCE1F93CF9317
:10500000DF93CDB7DEB767970FB6F894DEBF0FBE5C
:10501000CDBF4B8B5C8B6D8B7E8B8F8B6111109218
:105020009D021A8A198A85E0FE017396DE011D969B
:1050300001900D928A95E1F780916A0482FD1CC06F
:105040000E94DE192091430230914402821B930B8F
:105050008838934120F08091450282FF81C00E94F0
:10506000DE192091660230916702821B930B88380B
:10507000934110F00E94D00E86E0FE013D96DE01C5
:10508000179601900D928A95E1F7CE0107960E943E
:105090008526882389F016E08091410290911002C4
:1050A00089134BC067960FB6F894DEBF0FBECDBF15
:1050B000DF91CF911F91089586E0FE013796DE01C2
:1050C000119601900D928A95E1F78A859B85892B2F
:1050D00011F38F81988589238F3FE9F22091100287
:1050E00030E0C90101968770992740914102481725
:1050F000190681F410926F040E94EE1C10921002A7
:105100001092410286E0EAE0F2E0DF011D928A950A
:10511000E9F7C1CF96E0929FD001939FB00D112483
:10512000AF5EBD4FFE01319601900D929A95E1F769
:10513000809310020E94EF0EAECF819FC001112418
:105140008F5E9D4F0E948526882309F4ABCF809106
:10515000410290E0019687709927809341029CCF8D
:1051600082E00E94A61C7BCF0F931F93CF93DF9307
:1051700000D000D00F92CDB7DEB78C0190934D04D4
:1051800080934C04011580E2180720F5802F0E94BF
:105190004120C8010E94670F9801205E3109283024
:1051A000310510F0012B59F40F900F900F900F90D4
:1051B0000F90DF91CF911F910F910C9430200F90A1
:1051C0000F900F900F900F90DF91CF911F910F9143
:1051D0000C941B208EEF89838A831B820E94DE1928
:1051E0008160782F9D838C8349815A816B818D8169
:1051F0000F900F900F900F900F90DF91CF911F9114
:105200000F910C94FE270F931F93CF93DF9300D041
:1052100000D00F92CDB7DEB78C0190934D048093F0
:105220004C04011580E21807E8F4C8010E94670FDA
:105230009801205E31092830310518F0011511055B
:1052400071F40E943720802F0F900F900F900F90D5
:105250000F90DF91CF911F910F910C9473200E94BA
:105260002620F1CF8EEF89838A8381E08B830E9491
:10527000DE198160782F9D838C8349815A816B81EF
:105280008D810F900F900F900F900F90DF91CF9125
:105290001F910F910C94FE27AF92BF92CF92DF9295
:1052A000EF92FF920F931F93CF93DF93B82EA62E0A
:1052B000C0909E0480914904C82AC7E0D0E0D12C58
:1052C000F12CE12CD701C6010C2E04C0B695A79590
:1052D000979587950A94D2F780FF20C04A2D6B2DB1
:1052E0008C2F0E9488138C0181309105B9F00E94A7
:1052F00003298FE99FE00197F1F700C00000C80182
:105300000E94B42881E0DF91CF911F910F91FF900F
:10531000EF90DF90CF90BF90AF900895219790F6D7
:105320004A2D6B2D80E00E948813EC010E94032916
:105330008FE99FE00197F1F700C00000CE01E0CFB8
:10534000CF92DF92EF92FF920F931F93CF93DF9351
:105350000F92CDB7DEB7EE24E394F12C0BE712E009
:105360009E012F5F3F4F45E952E063E082E00E94DB
:105370001518082F882321F1C090BB028C2D90E0D6
:105380009C0125533D4F79011981F9018081181B3A
:10539000D12E80E00AC0DA94F70180818F5F80838C
:1053A00060E08C2D0E944C29802F1D14A4F3912FB6
:1053B00017FD90E0191B11110EC081110E94CE0E35
:1053C000802F0F90DF91CF911F910F91FF90EF9061
:1053D000DF90CF9008951F5FF70180818150808317
:1053E00061E08C2D0E944C29802FE5CF1F921FB6C3
:1053F0001F9211248F939F93AF93BF938091640466
:10540000811113C08091650490916604A091670496
:10541000B09168044196A11DB11D809365049093DD
:105420006604A0936704B0936804BF91AF919F9105
:105430008F911F901FBE1F901895CDB7DEB7E997CB
:105440000FB6F894DEBF0FBECDBF84B7877F84BF91
:105450000FB6F894A89580916000886180936000F1
:10546000109260000FBE80E890E00FB6F894809331
:105470006100909361000FBE85B7806885BF85B7D6
:10548000806885BF88EE9CE09093C5018093C4013D
:105490000E9432090E94250A8091E2008460809374
:1054A000E200789480919D048823A1F01091E90096
:1054B0001F709091EC00892F817090FD80E8182B6F
:1054C0001092E9008091E80083FD0E94011D1F7089
:1054D0001093E90082E084BD93E095BD9AEF97BDFB
:1054E00080936E001092A8021092A9021092AA0254
:1054F0001092AB020E945E14811102C00E947913C7
:105500000E9466118093380180913801882309F444
:1055100076C010924C0180E380934D010E94661189
:1055200081110E944434809138018091380196E0C5
:10553000811190E09093B90286E0891B8093B802B4
:105540000DE811E083E9E82E81E0F82ED8018D9175
:105550008D018F3F11F00E94EC0CE016F106B1F7BF
:1055600003E911E0BBE9EB2EB1E0FB2EF8018191DC
:105570008F018F3F11F00E94EC0CE016F106B1F79D
:105580008CE0E9EFF2E0DF01282F1D922A95E9F780
:10559000ECEAF2E0DF011D928A95E9F70E94C71854
:1055A000811102C00E942E1682E090E00E940E3609
:1055B0008093BE0284E090E00E940E36182F82E2B3
:1055C00090E00E940E36982F812F90936A0480936A
:1055D00069040E94251AEFE3FCE93197F1F700C056
:1055E00000000E94251A8091F90280FF0DC06FEF24
:1055F0007FEF90E080E00E9440360E949E1080E3A2
:1056000080934C0185E388CF83E090E00E940E36C2
:105610000E94EA1C0E9466118111A4C21092F0023D
:1056200080E88093A1060E94DC326DE070E08DE896
:1056300092E00E94980F892BE9F58091F00263E0D7
:1056400070E081FD94C28AE892E00E94980F892B55
:1056500089F56DE070E08AE792E00E94980F892B4F
:1056600049F50E94E80A605A75418F4F9F4F609339
:1056700058047093590480935A0490935B04E1EAB0
:10568000F4E080E092E0DF019C011D922150304067
:10569000E1F7F093A004E0939F048FEF9FEF9093C6
:1056A00057048093560481E080935D0480935C04EA
:1056B0001092F1028091BA02811136C00E94C7187F
:1056C000811104C00E942E160E94161688E090E0F8
:1056D0000E941636609344047093450480934604F8
:1056E00090934704809114038360809314036E7F2A
:1056F00071F40E94161688E090E00E9416366093BE
:1057000044047093450480934604909347040E9498
:10571000A50B8091440480FF04C060E086950E9440
:10572000E61581E08093BA0224982C9A25982D9A48
:10573000EFE8F1E03197F1F700C0000083B1829506
:1057400081701D9917C290E0892B8093CF029091B0
:10575000380181E098279093CE02891B8093BB0289
:105760000E946611811102C00E94473489E391E0D2
:10577000909361048093600489EF92E03CE0380FDD
:105780003FABCE0101961C0180919D04853001F54F
:10579000A0E4FA2EEE24E39400E112E180919D044E
:1057A000853009F4E9C110926F040E94EE1C0E943A
:1057B0008A111092BD028091BC02882349F0809129
:1057C000440481608093440460E086950E94E6155D
:1057D0000E94251AE82E81110E94E80AF9EF4F2E47
:1057E000F2E05F2EEFEBF2E0D20110E000E0B02E2D
:1057F000DD9081918D1509F40DC28D25C12CFF24FA
:10580000F394982F9F2109F400C20E946611882307
:1058100099F0C9A6BAA6DF2081E009F480E08BA741
:105820000E94DE198160782F9DA78CA749A55AA5F3
:105830006BA58DA50E94FE27F801E154FD4F8081E4
:10584000F826F0820E946611E091CF02EE0FEE0F73
:10585000E093CF0283B1829581708BAB1CAA1D9916
:10586000F0C180E0ABA9BCA98A2BE82BE093CF0262
:105870001091CE02EF70F0E0E556FE4F80819091DE
:10588000CD02890F8093CD02F12C84306CF0E12F92
:10589000F0E0E553FD4F80818F5F808360E0812FD2
:1058A0000E944C29FF24F3948091CD028D3F6CF42B
:1058B000E12FF0E0E553FD4F80818150808361E06E
:1058C000812F0E944C29FF24F3948091CD02082E51
:1058D000000C990B64E070E00E94C7358093CD0204
:1058E000F1100E94CE0E80915D04882351F18091C9
:1058F000F2029091F3020E94CF19C29708F0A4C15E
:1059000020915604309157042115310509F036C213
:1059100080915C048823A9F00E94E80A0091580451
:105920001091590420915A0430915B04601B710B53
:10593000820B930B6F3F7F4F8F4F9F4710F40E9456
:10594000C80FE11001C0F1100E94E30F86E0ECE007
:10595000F3E0D10101900D928A95E1F7F0900E03EA
:10596000E0900F03109110030091110310920E03A9
:1059700010920F0310921003109211038F2D8E2995
:1059800009F448C080910A0390910B030E94CF193B
:105990009C0190910603992309F409C6253131052C
:1059A000C8F19F3F19F09F5F90930603FF2059F0C5
:1059B0000E94600C9FEF1F140CF491E0899F802DD2
:1059C000112480930E03EE2059F00E94600C9FEF8B
:1059D0001E140CF491E0899F802D112480930F03F5
:1059E00030910E033323B1F020910F03222391F065
:1059F00045EB3403C0011124992309F493C2909319
:105A00000E0345EB240390011124332309F48EC2C5
:105A100030930F03812F802B09F448C08091080335
:105A2000909109030E94CF199C019091050399233D
:105A300009F4B8C521353105C8F19F3F19F09F5FC2
:105A400090930503112359F00E943E0C9FEF11160D
:105A50000CF491E0899F802D112480931003002382
:105A600059F00E943E0C9FEF10160CF491E0899FB4
:105A7000802D112480931103309110033323B1F052
:105A800020911103222391F045EB3403C00111242E
:105A9000992309F44FC29093100345EB240390011E
:105AA0001124332309F44AC23093110380910E0369
:105AB00090910F03892B90911003892B90911103E2
:105AC000892B11F00E94EA1986E0F101ACE0B3E005
:105AD00001900D928A95E1F70E948A119091F4024B
